:020000040800F2
:10000000B0170020D500000831460008F52C000884
:1000100000000000000000000000000000000000E0
:10002000000000000000000000000000315C00083B
:10003000F10F000800000000E5580008A97700084B
:10004000E9000008E9000008E9580008E900000894
:10005000E9000008011000084D10000879100008A0
:1000600000000000E9000008E9000008E9000008BD
:10007000E9000008E9000008000000000979000814
:1000800000000000E900000800000000000000007F
:10009000E900000800000000E9000008E90000088D
:1000A000E9000008E9000008E90000089D83000855
:1000B000E9000008E900000800000000000000005E
:1000C0000348854600F0F8FB00480047B18F000860
:1000D000B01700200548804705480047FEE7FEE7C7
:1000E000FEE7FEE7FEE7FEE7FEE70000A178000876
:1000F000C100000830B50B46014600202022012433
:1001000009E00D46D5409D4205D31D469540491B4B
:100110002546954040191546521E002DF1DC30BD94
:1001200070B500242546002801DA01244042002948
:1001300001DA01254942FFF7DDFFAC4200D0404221
:10014000002C00D0494270BDF0B51FB486B000202D
:100150000090019002900698069980B2049007984A
:10016000090C02040014114307900027089D099808
:1001700006913E463C4603900398A9B20204000C47
:10018000039004982D0C154348430021224600F0AB
:10019000C1FAC719714110340E46402CECDB3846C9
:1001A000029A00F0B7FA009A019B8018009059411A
:1001B00002980191103002904028CCDB00980BB0DF
:1001C000F0BD03460B439B0703D009E008C9121F8B
:1001D00008C0042AFAD203E00B780370401C491CC3
:1001E000521EF9D27047D2B201E00270401C491E83
:1001F000FBD270470022F6E710B513460A460446C4
:100200001946FFF7F0FF204610BD421C0178401C44
:100210000029FBD1801A70470321001D401E03787E
:1002200012021A43491EF9D510467047034610B50D
:1002300008330722040E090221435B1E1C780002CA
:100240002043521EF6D510BD034603220870000A53
:10025000491C521EFAD51846704770B504460D4623
:10026000072310700E06000A3043090A521C5B1E59
:10027000F7D52046294670BDF0B5074608465840D8
:1002800087B0C00F049048000E4659004008490846
:10029000BC1A884105D2384631461E4617460B46E1
:1002A00002465800400810434CD0300D03904005E2
:1002B0005900400D490D0590401A0290402872DA0D
:1002C00018030121000B09050843019004980092CE
:1002D000002805D0019952420020884100920190E7
:1002E000029840210A1A0199009800F013FA054675
:1002F0000C466B4607CB00F02EFAC0197141039AE9
:100300000E0D0023D71756401A467A40164344D0A4
:10031000049A002A2DD0029A012A039A15DC1205AC
:10032000C01A914101263605001C7141D20F059E6D
:10033000D2070093019202962A46234600F02BFA38
:1003400007B0F0BD38463146FAE71605224A0F4697
:10035000B218C01AB74101210905001C4F4100180D
:100360007F41114618187941E20F10436D1964411D
:1003700013E0E2076D0815436408C2071443039AAB
:1003800001261205C01A91413605001C7141CE07A5
:10039000400830434908C01851412A46234600F01E
:1003A000EDF9CDE7FFE7049801224000C117121ACA
:1003B00000238B4104983146C417381AA141EEE757
:1003C00030B40124E407634030BC55E730B4012465
:1003D000E407614030BC4FE70000E0FFF0B51FB418
:1003E00088B00B990998002448400999C00F49002A
:1003F00049080991C0070B990090490049080B91E1
:1004000009990898A64608431CD00B990A980843F6
:1004100018D0099801244000420D4800410D099868
:1004200024050003000B204309900B980003000BE8
:1004300020430B9050181C4940180022019014468C
:10044000104605E0002001460DB0F0BD032801DA9A
:10045000034600E003239C46C11A0AAE0AE05F008F
:1004600008ADED5B4F00F75B7D430027AA187C4188
:10047000491C5B1E6145F2DD410004AB5A52210468
:10048000120C0A43240C401C0828DFDB0198029060
:100490000099704601910090059B049A079906986F
:1004A00000F079F9D0E700000DFCFFFFF0B50C4635
:1004B0005C4085B0E40FE40703944C000026640818
:1004C00059009446490802460296224321D06246CA
:1004D0000A431ED06200570D4A000E032303550D38
:1004E000012402462C492405781B1B0B360B4018AF
:1004F00023432643614600901C46501AB44103D35F
:100500000098401C009002E0921800985B4100287F
:1005100003DA0020014605B0F0BD002001210905E5
:100520000746864611E064461D46141BB54106D3B6
:100530006546521BB341744607430C43A646CD079C
:1005400040084908284392185B4105460D43EAD10B
:100550001046184313D06046194650407140084376
:1005600006D06046101AB34106D20122002306E0ED
:1005700000220123DB0702E00122D243531000983E
:1005800074460105381C6141029C039D00196941B4
:1005900000F0F4F8BFE70000FD0300000EB5C2173D
:1005A000C10F5040CA0740180021054B0293019229
:1005B00000910A460B4600F0EEF803B000BD0000C3
:1005C000330400000EB505490291002100910A464E
:1005D0000B46019100F0DFF803B000BD33040000CA
:1005E00070B5CD0F4A0009030123090B1B05194300
:1005F0000B4BED070024520D9A4201DA002070BD2A
:10060000074B34339A4203DC9A1A00F093F802E065
:100610000449511888402C43F1D0404270BD00007D
:10062000FF030000CDFBFFFF4A0009030123090B74
:100630001B051943094B10B5520D9A4201DA0020EF
:1006400010BD064B34339A4203DC9A1A00F072F85C
:1006500010BD03495118884010BD0000FF03000081
:10066000CDFBFFFF10B5002904DB0124E407404265
:100670008C412146002B04DB1C460123DB07524240
:10068000A3418B4200D1824210BD000010B5002969
:1006900004DB0124E40740428C412146002B04DBAB
:1006A0001C460123DB075242A341994200D19042EC
:1006B00010BD0000F0B51FB40646002082B005460C
:1006C0004024019100901BE0019922460F463046DC
:1006D00000F030F8049A059B801A994110D3104617
:1006E0001946224600F016F8361A8F410197224625
:1006F00001200021009F00F00DF838184D410090B6
:100700002046641E0028DFDC019B00982946324603
:1007100007B0F0BD10B5202A04DB0146203A914015
:10072000002010BD914020239C1A0346E34019434A
:10073000904010BD10B5202A04DB0846203AD04076
:10074000002110BD0B46D340D0402024A21A914076
:100750000843194610BD10B5202A06DBCB17084602
:10076000203A1041C1170B4306E00B461341D0401D
:100770002024A21A91400843194610BD10B5002B41
:1007800008DA0024401C614192185B411A4301D1F0
:100790004008400010BDF0B51FB482B005460C0003
:1007A00003D0084607F016FF02E007F013FF2030E1
:1007B0000246009021462846FFF7ACFF049B059AAD
:1007C00004460F4618431143084314D018461043FB
:1007D0001BD0009840210A1A18460599FFF7AAFF76
:1007E00005460E46009A05990498FFF793FF0843C3
:1007F00005D0012004E02046394607B0F0BD0020B6
:10080000C11705430E432C43374300990E986305E7
:10081000401A7905E40A00220C43FD0A0A3002D589
:1008200000200146E9E70105101969410C9C0D9D66
:1008300000196941FFF7A2FFDFE70000F8B50546A0
:10084000480040080C46284304D06000184A400D78
:10085000904201DD2846F8BD15493539884210DC43
:1008600088420BDB290D200308432903014305D0EF
:10087000E00F1049C00741180020F8BD00200146D4
:10088000F8BD161A4020821B28462146FFF742FF7A
:1008900007460091284621463246FFF74BFF3A466D
:1008A000009BFFF76BFF3246FFF734FFF8BD0000F7
:1008B000330400000000F03F064C0125064E05E021
:1008C000E36807CC2B430C3C98471034B442F7D371
:1008D000FFF7FAFB30BC000850BC000870B58C185C
:1008E0000578401C6B075B0F01D10378401C2A116F
:1008F00006D10278401C03E006780E70401C491CAB
:100900005B1EF9D12B0705D40023521E0DD40B70AA
:10091000491CFAE70378401CCB1A921C03E01D78AF
:100920000D70491C5B1C521EF9D5A142D8D3002082
:1009300070BD30B589B005460C461022002105A8CF
:1009400008F048FB224605A905A807F0FEFF684607
:10095000007D8021084000281CD000BF00200AE054
:1009600005A9095C490005AB421C9A5CD2111143F0
:1009700005AA1154401C0F28F2DB08A9C9784906C2
:100980000A0E08A9CA7000BFC8788721484008A984
:10099000C87016E000BF00200AE005A9095C490004
:1009A00005AB421C9A5CD211114305AA1154401C9C
:1009B0000F28F2DB08A9C97849060A0E08A9CA70EF
:1009C00000BFFF201530005910280FD100BF0020B4
:1009D00009E0E11DFA31095C05AA125C5140E21DF3
:1009E000FA321154401C1028F3DB61E06846007DA8
:1009F0008021084000281CD000BF00200AE005A983
:100A0000095C490005AB421C9A5CD211114305AA4E
:100A10001154401C0F28F2DB08A9C97849060A0EB8
:100A200008A9CA7000BFC8788721484008A9C870C3
:100A300016E000BF00200AE005A9095C490005ABEB
:100A4000421C9A5CD211114305AA1154401C0F2874
:100A5000F2DB08A9C97849060A0E08A9CA7000BFC6
:100A60008021FF2015300259E01DFA30815406E044
:100A70000021FF2015300259E01DFA308154FF207B
:100A800015300059401CFF21153108511028EFD3B3
:100A900000BF002009E0E11DFA31095C05AA125CE3
:100AA0005140E21DFA321154401C1028F3DB00BF04
:100AB00000BF00200AE02146F131095CE21DFA3254
:100AC000125C51402246F1321154401C1028F2DBD6
:100AD00000BF10222146F13101A808F06FFA22462A
:100AE000294601A807F031FF1022002105A808F0CF
:100AF00071FA09B030BD10B504461022002120461D
:100B0000F13008F067FA0021FF2015300151F02282
:100B1000204608F05FFA10BD70B504460D46224627
:100B20001021284607F03EFF70BD0000F0B585B0EB
:100B300004460F4615463C480068401C3A49086088
:100B4000FF201530005900283ED0FF2015300059F5
:100B50001021081AA84204D2FF2015300059081AA3
:100B600000E028460646FF2115310A59E11DFA31F9
:100B700050183246394608F021FAFF201530005946
:100B80008119FF20153001510059102801D3B542B9
:100B900001D105B0F0BD00BF00200AE02146F131CF
:100BA000095CE21DFA32125C51402246F1321154C6
:100BB000401C1028F2DB00BF22462146F1310846D6
:100BC00007F0C3FEBF19AD1B21E000BF002008E005
:100BD0002146F131095C3A5C51402246F132115410
:100BE000401C1028F4DB00BF10222146F13168467A
:100BF00008F0E4F922466946684607F0A6FE10228E
:100C000069462046F13008F0D9F91037103D102D13
:100C1000DBD82A463946E01DFA3008F0CFF9FF202C
:100C20001530055100BFB4E76002002010B504463E
:100C30002048047001202049087001211F4803F05A
:100C400059FC1E49086800F03BF980211C48FFF759
:100C5000D1FA1B4913311B48FFF7F6FA5021184807
:100C6000C17500210176014619311748FFF7ECFAEA
:100C70005021134841770021817701461F311348E5
:100C8000FFF7E2FA50210E4813300174002141743D
:100C900001214D3001750521C1740E21603803F02A
:100CA00055FC002003F0B0FC01210248007808F058
:100CB00097FE10BDCC000020F0000020A40D002005
:100CC000E00D0020E039762E2047792E60547C2EEE
:100CD000F8B50D4600240026002000900120C00336
:100CE000284000287DD092E03078012804D00228E6
:100CF0004CD0042876D100E000BF0121084601F065
:100D000017FF6248007800282DDD60480078401EFB
:100D10005E4908704E2008F05DFD0446002C30D07E
:100D20004E220021204608F04BFD03202070462073
:100D30006070002004E0214608310854411CC8B20C
:100D40004628F8DB21465248007808F007FE204686
:100D500008F057FD4FA008F007FF87B239464DA0B5
:100D600001F0E4FD0DE0002003F04EFC0A204749AD
:100D7000087001214C48007808F032FE4B49C86ADF
:100D800080470021012001F0D3FE3CE00121022038
:100D900001F0CEFE03F0A2FC4549086800F090F88F
:100DA0000020009043480078401C424908704021D0
:100DB0004148FFF71FFA7278314608313E4808F083
:100DC000F1FC7078009000213B4A009811540C23EC
:100DD0002421002003F026FE03F080FD012137A02E
:100DE00001E020E00EE001F0A1FD3348FFF70DFA2D
:100DF00087B23946304801F099FD0021022001F008
:100E000097FE00E000BF00BF304608F0FAFC26481D
:100E1000007808F05FFD061E00D065E72846012136
:100E2000C9034840F8BDE807C00F00282CD00021B6
:100E3000012001F07DFE4E2008F0CCFC0446002C81
:100E400016D04E220021204608F0BAFC0320207064
:100E500046206070002004E0214608310854411CFF
:100E6000C8B24628F8DB21460948007808F076FD2C
:100E700008A008F079FE87B2394606A001F056FDB9
:100E8000284601214840CDE70020CBE7ED000020B7
:100E9000230100206170702073656E64207374619B
:100EA00072742E2E2E0A0000CC000020C4B8000858
:100EB000A40D0020EC000020500D00200A000000CE
:100EC00070B588B004466D4600261C200AE0214615
:100ED000C1400907090F002901D1761C00E003E099
:100EE000011FC8B20028F2DC00BF0FA1284607F09E
:100EF0005DFBED1C04E00DA1284607F057FB6D1CBF
:100F00003046761E0028F6D1224609A1284607F071
:100F10004DFB0C236A460021084603F083FD03F0D5
:100F2000DDFC08B070BD000049443A00300000000C
:100F30002578000030B50446264803780078401C28
:100F4000244D28702448C454A01E030007F059FB08
:100F50000705060F1019293233002EE01D480378CB
:100F60000078401C1B4D28701B48C15425E024E02C
:100F7000184803780078401C164D28701648C15454
:100F80001BE0144803780078401C124D287012486A
:100F9000C154284603780078401C28700E48C2547B
:100FA0000BE00C4803780078401C0A4D28700A4872
:100FB000C15402E001E0012030BD00BF05480078C7
:100FC0000F2804DC0120054B18700020F4E70220F4
:100FD000F2E7000067010020A41000206601002055
:100FE00008B500220092002100926846007808BDF2
:100FF000704710B50446204606F0ECFC10BD00001A
:1010000010B510484069C007C00F002809D00E482D
:10101000C068002802D00C49C868804701200949EF
:1010200048610848406902210840002809D0064864
:101030008068002802D0044988688047022001495E
:10104000486110BD000401402004002010B508488C
:10105000406904210840002809D00648406800285B
:1010600002D004494868804704200149486110BD06
:10107000000401402004002010B510484069FF2101
:1010800001310840002806D0084600F043F8FF2050
:1010900001300A4948610948406901218902084034
:1010A00000280AD006480068002802D004490868D1
:1010B0008047012080020149486110BD00040140C1
:1010C00020040020024600210FE0C800094B1858F8
:1010D000904208D8481CC0001858904203D9C80054
:1010E000C01800797047481CC1B21529EDD300BF64
:1010F000FEE7000054A0000831B5002400F01AF902
:10110000044600BF00F016F9001B00998842F9D38D
:1011100038BD000010B50446FF200130844205D1DF
:10112000844206D101200449087002E000200249EF
:10113000087007F033FF10BD5E000020F0B50346D5
:101140000A460027002400200021DAE001258D4016
:101150002F4615683D402C46BC4276D15568022D7D
:1011600002D05568122D15D1CD08AD001E4620368F
:1011700070594D07EE0E0F25B5400646AE4330467A
:101180004E07F60E1569B5402843CD08AE001D4642
:101190002035A8515568012D08D05568022D05D07D
:1011A0005568112D02D05568122D18D198684E003F
:1011B0000325B5400646AE4330464E00D568B540DF
:1011C00028439860586801258D400646AE43304656
:1011D0001026556835402D098D4028435860186801
:1011E0004E000325B5400646AE4330461579AD079F
:1011F000AD0F4E00B54028431860D8684E00032557
:10120000B5400646AE4330464E009568B54028438B
:10121000D8600126360755683540B54270D13B4D40
:101220006D6B01263543394E7563394D8E08B60016
:10123000A8598D072E0F0F25ED43B54028400525F1
:101240002D07AB4202D1002515E059E0314DAB42EC
:1012500001D101250FE0304DAB4201D102250AE05A
:101260002E4DAB4201D1032505E02D4DAB4201D1FE
:10127000042500E005258E07360FB5402843244D90
:101280008E08B600A851274D28680546A543284674
:101290000126360455683540B54202D1054625433E
:1012A0002846204D286068680546A5432846012643
:1012B000760455683540B54202D105462543284697
:1012C000184D6860A8680546A543284601263605DE
:1012D00055683540B54202D1054625432846114D93
:1012E000A860E8680546A5432846012676055568A6
:1012F0003540B54202D1054625432846094DE860F0
:10130000491C102900D221E7F0BD00000010024066
:10131000080001400004005000080050000C00507C
:10132000001C005000040140002A01D0816100E04F
:10133000816270470148006870470000200000206B
:1013400002480068401C01490860704720000020E6
:1013500010B509480068402108430749086008465D
:1013600000680221084304490860002000F006F8E4
:1013700000F017F8002010BD0020024070B50446B0
:1013800000F0B6F906467D21C900FEF7B3FE05461A
:1013900001F038F900222146501E00F023F8002009
:1013A00070BD10B506F044FA01F05EFB01F0E0FA02
:1013B00003F0E2F906F0ECFD04F012FB04F012FE7B
:1013C00005F0ECFA06F066FB10BD000000BFC20697
:1013D000D20E01219140024A116000BF7047000007
:1013E00000E100E070B504460D4616462946204649
:1013F00003F020F970BD000070B504460E460025CC
:10140000B8480068C007C00FB0426ED2B548006847
:10141000400840003043B349086008460068C007F0
:10142000C00FB04201D0012070BD022120680840E9
:10143000022807D1AC48C068F0218843A16808435E
:10144000A949C8602078C007C00F00284CD0606848
:10145000022809D1A4480068012149040840400C31
:10146000002824D10120DFE76068002809D19E48C8
:101470000068012149020840400A002817D10120D4
:10148000D2E76068032809D197480068012149061E
:101490000840400E00280AD10120C5E792480068A4
:1014A000042108408008002801D10120BCE78E48B3
:1014B000C06880088000616808438B49C860FFF7F6
:1014C00039FF05466068022810D107E0FFF732FFB8
:1014D000401B8649884201D90320A5E78248C0689D
:1014E0000C2108400828F1D1DAE035E060680328D3
:1014F0000FD107E0FFF71EFF401B7C49884201D94E
:10150000032091E77848C0680C2108400C28F1D1ED
:10151000C6E0606800280FD107E0FFF70BFF401B13
:101520007249884201D903207EE76F48C0680C21C8
:1015300008400028F1D1B3E007E0FFF7FBFE401BB5
:101540006A49884201D903206EE76748C0680C21C8
:1015500008400428F1D1A3E00221206808400228B5
:1015600007D16148C068F0218843A16808435E49FB
:10157000C8602078C007C00F00284CD060680228DF
:1015800009D159480068012149040840400C00284D
:1015900024D1012048E76068002809D1524800683A
:1015A000012149020840400A002817D101203BE7E9
:1015B0006068032809D14C480068012149060840A9
:1015C000400E00280AD101202EE747480068042178
:1015D00008408008002801D1012025E74248C06862
:1015E00080088000616808433F49C860FFF7A2FE99
:1015F0000546606802280FD107E0FFF79BFE401BFD
:101600003A49884201D903200EE73748C0680C21C7
:1016100008400828F1D134E0606803280FD107E0C2
:10162000FFF788FE401B3149884201D90320FBE6C1
:101630002D48C0680C2108400C28F1D121E06068D9
:1016400000280FD107E0FFF775FE401B27498842AD
:1016500001D90320E8E62448C0680C21084000288E
:10166000F1D10EE007E0FFF765FE401B1F498842FD
:1016700001D90320D8E61C48C0680C210840042882
:10168000F1D118480068400840003043154908600F
:1016900008460068C007C00FB04201D00120C3E671
:1016A000042120680840042808D10F48C068072199
:1016B00009028843E16808430B49C8600821206893
:1016C0000840082809D10848C0680721C902884392
:1016D0002169C90008430449C8600020FFF74EFE95
:1016E0000020A1E600200240001002408813000004
:1016F00010B500F0CBF80649C968F022114009097D
:10170000044A515CC840044908600846006810BD9E
:10171000001002402D000020000000203F21016049
:1017200047490968012292041140914203D10521E1
:10173000090441600AE0424909680122120411408B
:10174000914201D1416001E0002141603C490968BA
:10175000FF2201321140914202D10121C16101E019
:101760000021C16136490968090E0162344949689E
:10177000072252031140490B416231498968C90768
:10178000C90F002902D00121816101E0002181619E
:101790002B490968C907C90F002902D00121C1607E
:1017A00001E00021C160264949681F221202114050
:1017B000090A01612249403109690122920211405E
:1017C000914203D10521090281600BE01C4940319F
:1017D0000969FF2201321140914201D1816001E08B
:1017E00000218160164940310969C907C90F0029E4
:1017F00002D00121416101E00021416110490968E5
:10180000012212061140914202D10221816201E0BF
:10181000012181620A49C968012212041140C16292
:101820000749C9680F22920411408A0C02630449D7
:10183000C9680322920511408A0D42637047000077
:101840000010024010B5FFF753FF0549C968072291
:1018500012021140090A034A515CC84010BD000041
:10186000001002402D00002010B5FFF741FF054990
:10187000C9680722D2021140C90A034A515CC84014
:1018800010BD0000001002402D000020F8B500241B
:1018900000270020009000250026294840680721E5
:1018A00049030840450BA80026490D582448C06844
:1018B0000C210840002806D0042806D008280ED0A5
:1018C0000C2838D10DE02E4637E01D480068102165
:1018D0000840002801D01C4E00E01C4E2DE01C4E9C
:1018E0002BE01748C0680F218904084004461448BB
:1018F000C0680321890508400746A00C15490C5C07
:10190000B80D471C0E48C06801210904084000902A
:101910000098002807D10D49614308463946FEF773
:10192000E9FB064606E00A49614308463946FEF7E8
:10193000E1FB064601E02E4600BF00BF3046F8BD81
:101940000010024008A0000800093D000024F40037
:1019500000127A002400002070B50446002520788B
:10196000C007C00F002871D0FC48C0680C21084097
:1019700008280BD0F948C06808400C2814D1F74853
:10198000C06801210904084088420DD1F34800686D
:10199000012149040840400C002857D049106068D4
:1019A000884253D0012070BDEC480068052109042D
:1019B0008843EA490860FFF7BDFC054607E0FFF7EA
:1019C000B9FC401BE649884201D90320EBE7E34814
:1019D0000068012149040840400C0028EFD1DF488D
:1019E000006805210904884361680843DB490860F1
:1019F000012109046068884214D1FFF79BFC054669
:101A000007E0FFF797FC401BD549884201D9032026
:101A1000C9E7D2480068012149040840400C002869
:101A2000EFD013E0FFF786FC054607E0FFF782FCE6
:101A3000401BCB49884201D90320B4E7C74800685E
:101A4000012149040840400C0028EFD10221206800
:101A5000084002286AD1C148C0680C210840042807
:101A60000BD0BE48C06808400C281DD1BB48C068D8
:101A7000012109040840002816D1B8480068042153
:101A800008408008002804D0E068012801D0012027
:101A900089E7B24840681F21090288432169090289
:101AA0000843AE49486041E0E068002824D0AB48D4
:101AB000006809218843E1680843A8490860FFF7E6
:101AC00039FC054606E0FFF735FC401B642801D9C8
:101AD000032068E7A1480068042108408008002826
:101AE000F1D09E4840681F210902884321690902FC
:101AF00008439A49486019E09848006809218843DA
:101B0000E168084395490860FFF714FC054606E0C4
:101B1000FFF710FC401B642801D9032043E78F48DE
:101B200000680421084080080028F1D110212068B5
:101B3000084010286FD18948C0680C21084000284F
:101B40001FD186480068012149020840400A002848
:101B500004D0E069012801D0012024E77F484068D3
:101B6000072149038843616A08437C494860084665
:101B700040680002000A218C090608437749486042
:101B800049E0E06900282CD074480068FF21013149
:101B9000084372490860FFF7CDFB054606E0FFF7F2
:101BA000C9FB401B642801D90320FCE66B48006890
:101BB000012149020840400A0028F0D067484068E7
:101BC000072149038843616A08436449486008461D
:101BD00040680002000A218C090608435F494860FA
:101BE00019E05E480068FF21013188435B490860C5
:101BF000FFF7A0FB054606E0FFF79CFB401B6428AF
:101C000001D90320CFE65548006801214902084068
:101C1000400A0028F0D1082120680840082839D15E
:101C2000606900281BD04D484030006901210843FD
:101C30004A4940310861FFF77DFB054606E0FFF7A2
:101C400079FB401B642801D90320ACE643484030AF
:101C500000690221084040080028F0D01AE03F48FF
:101C600040300069400840003C4940310861FFF7BE
:101C700061FB054606E0FFF75DFB401B642801D9C8
:101C8000032090E6354840300069022108404008B2
:101C90000028F0D1202120680840202849D1A069DF
:101CA000002826D000BF2D488068012108432B4919
:101CB00088600846406B0121084328494863294849
:101CC000006A491408432749086200BFFFF732FB46
:101CD000054606E0FFF72EFB401B642801D90320D0
:101CE00061E61E4880680221084040080028F1D0C3
:101CF0001FE000BF1948806840084000174988600D
:101D00001848006A184908401649086200BFFFF7E2
:101D100011FB054606E0FFF70DFB401B642801D9C7
:101D2000032040E60D488068022108404008002852
:101D3000F1D1042120680840042878D10748806B3D
:101D400089060843054988630848006889150843DF
:101D500006490860FFF7EEFA054610E00010024061
:101D60008813000000000140FEDFFFFF007000400C
:101D7000FFF7E0FA401B642801D9032013E6684806
:101D80000068FF21013108400028F1D06548006952
:101D900005210902884363490861FFF7CBFA05462C
:101DA00007E0FFF7C7FA401B5F49884201D90320CB
:101DB000F9E55C480069012149020840400A002811
:101DC000EFD158480069052109028843A1680843FA
:101DD000544908618915A068884214D1FFF7AAFA0E
:101DE000054607E0FFF7A6FA401B4F49884201D994
:101DF0000320D8E54B480069012149020840400A08
:101E00000028EFD013E0FFF795FA054607E0FFF74B
:101E100091FA401B4449884201D90320C3E5414857
:101E20000069012149020840400A0028EFD1A06A58
:101E3000002872D03B484038C0680C2108400C286C
:101E400069D0A06A022848D136484038006801218C
:101E500009068843334940390860FFF76BFA0546A5
:101E600006E0FFF767FA401B642801D903209AE5D2
:101E70002C4840380068012149060840400E0028DF
:101E8000EFD1616B206B0843E16A08432549403973
:101E9000C968FD2212049143084322494039C860B1
:101EA000084600680121090608431E4940390860B8
:101EB000FFF740FA054606E0FFF73CFA401B6428AE
:101EC00001D903206FE51748403800680121490611
:101ED0000840400E0028EFD01FE01248403800684C
:101EE0000121090688430F4940390860FFF722FAAB
:101EF000054606E0FFF71EFA401B642801D90320BF
:101F000051E5084840380068012149060840400E64
:101F10000028EFD101E0012045E5002043E5000065
:101F2000007000404010024088130000704710B558
:101F3000044603F0E1FC10BD10B504462068C068FB
:101F4000FF2101310840000A002810D02068806875
:101F50000901084000280AD02046FFF7E8FF206862
:101F6000C06880210840124908432168C860206881
:101F7000C068012149020840400A002810D02068AA
:101F800080680901084000280AD02046FFF7CEFFEC
:101F90002068C06880210840064908432168C8605D
:101FA000012040040449486101212120015510BD50
:101FB0007FFEFFFF7FFDFFFF0004014010B50446D8
:101FC000002C01D1012010BD0221512001552068B3
:101FD00000684021884321680860204600F054F8DA
:101FE0000021522001555120015500BF50200155BC
:101FF00000BF0020E7E701465120405C704710B564
:102000000446002C01D1012010BD5120005D0028A4
:1020100002D1204600F039F80221512001552068F4
:1020200000684021884321680860A168606808430F
:10203000E1680843216908436169084301225202AB
:10204000A16911400843E1690843216A0843A16A74
:10205000084321680860A069000C04210840616AF7
:102060000843216848602168E06A08612068C06907
:10207000910088432168C861002152200155012147
:10208000512001550020BFE770477047F8B504465E
:102090000E4615461F465120005D01287CD1002EBA
:1020A00001D0002D01D10120F8BD00BF5020005DFE
:1020B000012801D10220F7E701215020015500BF7E
:1020C0001221512001550021522001552663A58679
:1020D000E5860020E064A064A087E0870121490331
:1020E000A06A88420DD100BF20680068884321683B
:1020F00008602068006801214903084321680860DE
:1021000000BF0121C903A068884205D1206800688A
:102110004910084321680860206800684021084091
:10212000402804D020680068084321680860E068FF
:10213000002832D16068002802D0E08E012808D142
:10214000216B481C206308782168C860E08E401E1F
:10215000E08612E03B4600220221204603F0DCFC30
:10216000002801D003209FE7216B481C20630878DA
:102170002168C860E08E401EE086E08E0028E9DC21
:1021800001214903A06A88423AD1206800684910B9
:1021900008432168086033E065E06068002802D0E9
:1021A000E08E012809D1206B00882168C860206B6F
:1021B000801C2063E08E401EE08613E03B46002238
:1021C0000221204603F0A8FC002801D003206BE781
:1021D000206B00882168C860206B801C2063E08E23
:1021E000401EE086E08E0028E8DC01214903A06A59
:1021F000884205D1206800684910084321680860BA
:102200003B4600220221204603F086FC002807D02E
:102210005220005D2021084352210855032043E746
:102220003B4601228021204603F076FC002807D09F
:102230005220005D2021084352210855032033E736
:10224000A068002805D100BF2068C06820688068A9
:1022500000BF01215120015500BF00215020015530
:1022600000BF002020E702201EE7FEB504460E4610
:1022700017461D460020019000905120005D0190FE
:102280000198012802D00198222875D1002E03D090
:10229000002F01D0002D01D10120FEBD00BF502034
:1022A000005D012801D10220F7E7012150200155EE
:1022B00000BF5120005D012802D13221512001557B
:1022C000002152200155A763A587E5872663A586CF
:1022D000E5860020A064E06401214903A06A8842E9
:1022E0000DD100BF2068006888432168086020681D
:1022F00000680121490308432168086000BF206885
:10230000006840210840402804D020680068084345
:10231000216808600121C902E06888427DD16068B7
:10232000002807D0FF210531606888420CD1E08E7B
:10233000012809D1206B00882168C860206B801CAF
:102340002063E08E401EE086E08E002820D101212F
:102350004903A06A884205D12068006849100843F3
:1023600021680860002201212046089B03F0D4FB6D
:10237000002802D0032090E742E12068C068A16BEA
:102380000880A06B801CA063E08F401EE087D7E030
:1023900035E0002202212046089B03F0BDFB002807
:1023A00001D0032079E7206B00882168C860206B8A
:1023B000801C2063E08E401EE086E08E00280AD15B
:1023C00001214903A06A884205D1206800684910AC
:1023D000084321680860002201212046089B03F081
:1023E0009BFB002801D0032057E72068C068A16B41
:1023F0000880A06B801CA063E08F401EE087E08E09
:102400000028C6DC60680028C1D1002201212046D6
:10241000089B03F081FB002800E00DE001D00320C1
:102420003BE72068C068A16B0880A06B801CA0639C
:10243000E08F401EE08783E06068002807D0FF211E
:102440000531606888420BD1E08E012808D1216BEC
:10245000481C206308782168C860E08E401EE08632
:10246000E08E00281CD101214903A06A884205D1D1
:102470002068006849100843216808600022012193
:102480002046089B03F048FB002801D0032004E706
:102490002068C068A16B0870E08F401EE0874FE0A5
:1024A00034E0002202212046089B03F035FB00287F
:1024B00001D00320F1E6216B481C206308782168D5
:1024C000C860E08E401EE086E08E00280AD101211F
:1024D0004903A06A884205D1206800684910084372
:1024E00021680860002201212046089B03F014FBAC
:1024F000002801D00320D0E62068C068C1B2A26BDA
:10250000501CA0631170E08F401EE087E08E002811
:10251000C7DC6068002813D1002201212046089BF7
:1025200003F0FAFA002801D00320B6E62068C0685C
:10253000C1B2A26B501CA0631170E08F401EE087F7
:1025400001214903A06A884213D1002201212046BB
:10255000089B03F0E1FA002807D05220005D022119
:10256000084352210855032097E62068C06880B2CE
:102570000290012280212046089B03F0CDFA00281A
:1025800007D05220005D2021084352210855032026
:1025900083E6012151200155206880681021084000
:1025A000000900904902A06A884222D100980028C0
:1025B0001FD05220005D02210843522108550121FD
:1025C0004903A06A88420DD100BF20680068884393
:1025D00021680860206800680121490308432168D8
:1025E000086000BF00BF00215020015500BF01203E
:1025F00053E600BF00215020015500BF00204CE6EB
:1026000002204AE670B504462546681E09498842FC
:1026100001D901200CE0681E074948610321081F09
:1026200002F008F8002004498861072008610020B2
:1026300070BD0000FFFFFF0000E000E010B50446A1
:10264000002C01D1012010BD3520005D002802D1F1
:10265000204600F00DF8022135200155211D20688B
:1026600005F06CF90121352001550020EBE7000051
:1026700010B504460748806B01210843054988636B
:10268000002211460F20FEF7ADFE0F20FEF79EFE42
:1026900010BD00000010024001460868C068012219
:1026A00010430A68D06008680068012210430A6875
:1026B000106000207047704710B50446206800691C
:1026C00002210840400800281CD02068C06808404B
:1026D0004008002816D0481F216808610120207595
:1026E000206880698007800F002803D02046FFF70C
:1026F000E2FF05E0204600F09DF8204600F09BF840
:102700000020207520680069042108408008002806
:102710001DD02068C06808408008002817D0C84332
:102720002168086102202075206880690321090260
:102730000840002803D02046FFF7BDFF05E02046F3
:1027400000F078F8204600F076F800202075206828
:10275000006908210840C00800281CD02068C06813
:102760000840C008002816D0C8432168086104202A
:1027700020752068C0698007800F002803D020469C
:10278000FFF799FF05E0204600F054F8204600F0DE
:1027900052F80020207520680069102108400009C7
:1027A00000281DD02068C06808400009002817D004
:1027B000C84321680861082020752068C06903218A
:1027C00009020840002803D02046FFF774FF05E007
:1027D000204600F02FF8204600F02DF8002020754C
:1027E00020680069C007C00F012148404840002808
:1027F0000CD02068C068084048404840002805D0F8
:10280000C81E21680861204600F016F8206800699B
:1028100040210840800900280BD02068C06808408B
:102820008009002805D0C84321680861204600F0CF
:1028300004F810BD70477047704770477047704785
:1028400010B50446002C01D1012010BDA06900285C
:1028500000D000E000BF6920005D002802D12046C2
:1028600000F02AF80221692001552068006840081C
:10287000400021680860204605F0CCFB606A002813
:1028800002D0204605F0DCFA206840680921C90220
:10289000884321684860206880682A21884321682D
:1028A000886020680068012108432168086020468C
:1028B00005F03EFBC9E7000010B586B00446194894
:1028C000C06A022108431749C8620846C06A02214B
:1028D00008431449C8620846406B01218903084334
:1028E000104948634020019002200290012003908B
:1028F000022004900020059001A90B48FEF71EFC61
:10290000802001900020059001A90748FEF716FCE1
:10291000012200211B20FEF765FD1B20FEF756FD5E
:1029200006B010BD001002400004005030B504464F
:102930000D46002300BF0BE0E05C0749886200BF42
:102940004021054800F00AF80028F9D0581C83B24D
:10295000AB42F1DB30BD0000003801400246D069D7
:102960000840884201D1012070470020FCE70000A8
:1029700010B500F0E5F90020024908700120024975
:10298000087010BD5E0000205D00002010B50548F5
:102990000078002805D001F089FE03490868FEF799
:1029A0008FFA10BD5E000020A40D0020FFB581B09D
:1029B00005461746002D48D0002F46D00498002821
:1029C00043D0642F3CDA0126AD07AD0F224C2AE03C
:1029D00028463040002823D02078022808DA3046E4
:1029E0001E49097808401E49097808431C490870A7
:1029F000002020700498A080A77002986070029850
:102A0000002803D1207804210843207006F060FDDF
:102A1000A0602078022108432070284670400546B7
:102A20007006060E0C34002DD2D120210D480078FE
:102A300007F077F820210B48007806F0D1FF08E076
:102A40000121284600F074F803E00021284600F038
:102A50006FF805B0F0BD0000600400205F000020AA
:102A600060000020F100002000B585B00F48C06A6A
:102A7000012108430D49C8620846C06A0421084381
:102A80000A49C86201200090019002900220039040
:102A9000694605200007FEF751FB01204003009026
:102AA00069460348FEF74AFB05B000BD001002402E
:102AB0000008005070B504460D46E007C00F00281E
:102AC0000ED0012D06D10122114605200007FEF788
:102AD0002BFC05E00022012105200007FEF724FC65
:102AE0000220204000280DD0012D05D101225103E4
:102AF0000D48FEF719FC05E00022012149030A48B0
:102B0000FEF712FC002D05D0084800782043074945
:102B1000087007E02046FF21484004490978084032
:102B20000249087070BD0000000800505F000020DE
:102B3000F8B505460E46330005F063FD0917160685
:102B4000360E3636361836007D23DB00052201218D
:102B50002846FFF72BFF28E07D23DB0005223221EA
:102B60002846FFF723FF20E000BF00BF0127AD0785
:102B7000AD0F104C15E02846384000280ED0082E26
:102B800001D0267003E02078012148402070217890
:102B90003846FFF78FFF2846784005467806070E2F
:102BA0000C34002DE7D100E000BF00BF02480078E0
:102BB000F8BD0000600400205F000020FEB5002783
:102BC000012503200190484C2046007E00287DD13D
:102BD0007BE001982840002874D02078022108402A
:102BE00000286CD006F074FC0646A168B14259D8A2
:102BF0002078C007C00F002815D0A0786421081ADB
:102C0000C0B2029020784008400020700021284681
:102C1000FFF750FF207804210840002819D1607880
:102C2000401E607015E06078002809D120780421EA
:102C30000840002804D1207802214840207008E094
:102C4000A078029020780121084320702846FFF7E1
:102C500031FF20780221084000280CD0A188029A78
:102C6000514308466421FDF745FA80B20090009870
:102C70003018A0601AE0002000901C48007828401E
:102C8000002801D0012000E0002001462846FFF77F
:102C90004FFF2846FF21484014490978084013494E
:102CA000087003E02089801B80B20090002F05D0BF
:102CB0000098002803D00098B84200DA009F0198DD
:102CC000684001906806050E0C3400E00BE00198A6
:102CD000002800D07DE7002F05D03A462021044887
:102CE000007806F0FFFEFEBD6004002060000020BA
:102CF000F100002000BFFEE710B504460248047052
:102D0000FEF726FB10BD0000F100002070B505465F
:102D10000C4620202040002805D0FFF74FFF20461A
:102D20002021484070BD10202040002805D0FFF72A
:102D30002DFE204610214840F4E70020F2E7000075
:102D400000B585B00E48C06A012108430C49C8622D
:102D50000C48019001200290000200900220039094
:102D6000694605200007FEF7E9F900220121072046
:102D7000FEF738FB0720FEF729FB05B000BD000079
:102D8000001002400000211010B5014683230022EC
:102D900004E00C78491C1046584322180878002893
:102DA000F7D15000400810BD00B589B00848406A0E
:102DB0000090074807A14369026901A805F0F6FBE6
:102DC00001A8FFF7E1FF0649086009B000BD000057
:102DD0004000F81F25782C25782C2578000000006D
:102DE0002401002010B50446104804701049114811
:102DF000FDF72AFA0E4800F03DF900200E49087050
:102E0000FFF7D2FF0D4B0E4A0E480168002000F07C
:102E100033FA0120084908700B4908700B490C4827
:102E200004F092FE012001F0D1F910BD2301002031
:102E30001F010020814B0008150100200501002022
:102E4000F5000020240100201C010020D9580008B2
:102E5000F00E0020F8B50E460025FF270120C00324
:102E60003040002845D039E023480078002829D197
:102E70006A78294608312148007801F01FF8074692
:102E80001F48008805F074FF002F24D0082006F0AA
:102E9000A1FC0446002C14D008220021204606F094
:102EA0008FFC0420207003206070277202221449D6
:102EB0002046093006F076FC21461248007806F0DC
:102EC0004DFD08E00C480078012804D169782846B7
:102ED000083006F05BFF284606F093FC0A480078AD
:102EE00006F0F8FC0500BFD130460121C903484077
:102EF000F8BD0020FCE70000280100201E01002092
:102F000030010020CC00002023010020F8B5074646
:102F10000C462079012802D002283FD100E000BFF2
:102F2000607A002839DD617A08460C3006F052FCE0
:102F30000546002D30D0607A02460C32002128462A
:102F400006F03EFC02202870607A6870E07AA17A70
:102F500000060014084340B2A870207B40B2E8701D
:102F6000601DFDF759F90646627A31462846083059
:102F700006F018FC29460B48007806F0EFFC2846BE
:102F800006F03FFC227B51B2E27AA37A12061214B9
:102F90001A4350B205F068FE00BF00E000BF00BF5A
:102FA000F8BD0000CC000020FFB581B007460E46FA
:102FB0001C460B9D1E490A9848718C712004000E16
:102FC000C8712002000E0872200E48728D7228040B
:102FD000000EC8722802000E0873280E4873CE73C4
:102FE0001448FDF788FD13480399FDF795FD10225D
:102FF0000F491048FDF79AFDF2B239460D48FDF72A
:1030000095FD0C490C48FDF794FC0B48C078000670
:10301000094989780904084307494978090208439E
:103020000549097808430C99086005B0F0BD000017
:103030003F020020981200208411002010B507489C
:1030400007490860074888600748086107484860E2
:103050000748C860084603F0BFFC10BD5D55000876
:10306000DC100020314E0008D55400080557000838
:103070001955000810B504464C48046000204C491E
:1030800008704C49487088700720C870012008718A
:10309000491D0020FDF7D8F80020464948724881B4
:1030A0000873002143484173817300204149C8736C
:1030B00008740870404908700120404908600020E9
:1030C0003F4908603F4908703F49086007203F4971
:1030D000088001203E49087005203E4908703E499D
:1030E000087001203D49087000203D4908703D49A5
:1030F000087001203C49088000203C4A1060506064
:103100003B4A1060506001203A4908703A483B49F8
:1031100008603B483B4908603B4908603B483C49E4
:1031200008603C483C4908603C493D4804F00CFDBF
:103130003C493B4804F0BAFD3B493C4804F004FDDF
:103140003B493C4804F000FD3B493C4804F0FCFC92
:103150003B493C4804F0F8FC3B493C4804F0F4FC93
:103160003B483C4908603C4888603C4808613C4812
:1031700048603C48C8603C480168364888473B493D
:1031800009693A4A52695140384A526A51400846E0
:1031900006F0F2FE1020364908700120354908700B
:1031A0000846007801F08AF910BD000008020020EE
:1031B0000C020020C8100020500100205401002003
:1031C000580100205E01002004020020E2010020DE
:1031D000E4010020E5010020E6010020E7010020D5
:1031E000E8010020E9010020EA010020F0010020B0
:1031F000F801002000020020C0C62D002802002097
:1032000040420F001002002014020020404B4C00EE
:1032100018020020808D5B001C020020FD4B00087E
:10322000B410002060AE0A00354B0008F8100020F2
:10323000595800080C1100204157000820110020A7
:10324000AD57000834110020194B00084811002028
:103250005D550008DC100020314E0008D5540008F0
:103260000557000819550008C4B800084000F81FA9
:103270000102002051010020F8B504460D46164613
:103280001F46094804600948056010223146084875
:1032900005F094FE10223946064805F08FFE012005
:1032A00005490870F8BD00004401002048010020D5
:1032B000040F0020140F00205E010020F8B5044622
:1032C0000D4616461F461048FDF715FC31460E48C0
:1032D000FDF722FCEAB221460B48FDF727FC0A491C
:1032E0000A48FDF726FB0948C07800060749897897
:1032F0000904084305494978090208430349097844
:1033000008433860F8BD00009812002084110020A6
:10331000FFB585B005460E461C460E9F07A80090D7
:10332000F02200211C4805F055FE1B4A10212846BA
:1033300005F038FB1022002101A805F04BFE012109
:103340006846017106223146401D05F037FE022213
:1033500002A80330009905F031FE0F4A214601A86A
:1033600005F0F3FA1022002101A805F033FE022136
:103370006846017106223146401D05F01FFE0222FB
:1033800002A80330009905F019FE034A394601A846
:1033900005F0DBFA09B0F0BDA4110020F8B507462E
:1033A0000C4615461E46F0220021074805F012FE85
:1033B000E1B2054A284605F0F5FA034A3146384697
:1033C00005F0C3FAF8BD0000A411002070B5044652
:1033D0000D460A48006800280DD008480068FCF730
:1033E0001BFF002807D005480068FCF715FF0646BC
:1033F00029462046B0470020207070BD08020020FA
:10340000FFB583B004460D460E9F0C9E0D980297A3
:103410000096019029462046069B059A00F002F886
:1034200007B0F0BDFFB581B00D461E460027012054
:103430000090F0220021304805F0CCFD2E4A1021EA
:10344000039805F0AFFA2D490A9848718E7130043F
:10345000000EC8713002000E0872300E48720B98D0
:1034600088720B980004000EC8720B980002000EC0
:1034700008730B98000E487320E020490098C87329
:103480000098401C80B200901B4A1D491B4805F063
:103490005CFA00240AE039190198405C1849095D7A
:1034A00048403A190C998854601C84B2102CF2DB05
:1034B0002846103885B238461030C7B2102DDCDAF5
:1034C000002D16DD0D490098C8730B4A0C490B48B6
:1034D00005F03BFA00240AE039190198405C0849DC
:1034E000095D48403A190C998854601C84B2AC427A
:1034F000F2DB05B0F0BD0000A41100204F02002057
:1035000094110020FFB585B01C46119F00250020B6
:103510000490ED490880ED4908701098002800D10A
:103520000027079802782846691CCDB2E8490A545A
:10353000079800784009002804D002287DD004288C
:1035400076D176E0E34800687D21C900401AE2495F
:103550000860E24800687D21C900401AE04908601F
:10356000D9480580DA490246128888180822DD49C0
:10357000096805F023FDD44800880830D249088046
:10358000D349D14A128888180822D749096805F01A
:1035900015FDCD4800880830CB490880D3494869DB
:1035A0008047D349088008460178C74802880088C8
:1035B000401CC54B1880C6488154CD480088001275
:1035C00019460A880988491C1980C1498854184637
:1035D000017804ABC7480268BD48FFF76FFE049846
:1035E000C1B2B94802880088401CB74B1880B8485F
:1035F000815404980004010E184602880088401C7B
:103600001880B348815404980002010E18460288BD
:103610000088401C1880AE4881540498000E19465A
:103620000A880988491C1980A949885448E104E09E
:1036300044E10120A549087000BFAF480078002888
:1036400002D1022009B0F0BDAC4800687D21C9005C
:10365000401AA1490860AA4800687D21C900401AA3
:103660009F4908600E98002803D1207800090001C6
:103670002070A4480078012807D10020A1490870D3
:10368000207820218843203020702078C00900282D
:1036900030D09D480078002806D19C4908602078E9
:1036A00040218843207025E098480068402805D9CB
:1036B0002078402188434030207003E0207840216A
:1036C0008843207091480068602813D900208F49F2
:1036D00008608D4800214156002905DD0078401E14
:1036E00040B28949087005E08948008807210843ED
:1036F00087490880874802782846691CCDB27449FA
:103700000A54844800880004020E2846691CCDB281
:103710006F490A547F4800680002020E2846691C5F
:10372000CDB26B490A547B480068000E29466A1CDA
:10373000D5B2674A505422782846691CCDB26449F4
:103740000A54754802782846691CCDB260490A546B
:10375000714800880004020E2846691CCDB25C49FD
:103760000A540E9800280FD0002608E00E98825DBB
:103770002846691CCDB256490A54701C86B220787E
:103780000007000FB042F1DC20780007000F63490A
:10379000097840180F2825DC6148007801281CD1E1
:1037A00020780009000121785C4A127889180907FD
:1037B000090F08432070207845494871002608E029
:1037C0005848825D2846691CCDB241490A54701C94
:1037D00086B2524800788642F2DB002050490870D9
:1037E0004E490870E819802801DD03202AE7109867
:1037F000002829D036490F9848550F9800280ED137
:1038000049484549096800220092019102904148C7
:10381000464A394603681098FFF704FE0DE0424817
:103820003D49096800220092019102903948404ABE
:10383000394603681098FFF7F5FD25494919481CDA
:103840003A46394905F0BAFB681CC0191E49088080
:1038500004A83149096800220092019102902D4884
:10386000324A0368184801881948FFF79DFB16483B
:103870000088001D802801DD0320E3E60498C1B222
:10388000134A11480088115404980004010E0E4890
:103890000088401C115404980002010E0A48008858
:1038A000801C11540498000E07490988C91C505403
:1038B00005480088001D0449088001E00420C1E695
:1038C00000BF0020BEE6000052010020640100207D
:1038D000240F002018020020200200201C020020DB
:1038E000240200203801002034010020C4B8000860
:1038F000400100203C0100205E0100201002002059
:103900001402002065010020E50100206001002074
:10391000E20100204801002054010020670100203E
:1039200066010020A4100020A40F0020040F002036
:10393000140F0020F7B586B005460C46E7E1204697
:10394000611CCCB2285C801E030004F05AFE0705FF
:1039500019C4D6FEFDFCFB00F048007840218843E6
:103960004030EE4908702046611CCCB2285CEC491E
:10397000C8732046611CCCB2285CE9490874C5E1D3
:1039800007270020059004900390029001902046A4
:10399000611CCCB2285C40B2039003980007000F72
:1039A000049003980006000F0390DE48007800287A
:1039B00011D1DD48002141560398814205D1DB48F1
:1039C000002141560498814205D00022114603206F
:1039D000FDF7B0FA9AE12046611CCCB2285C059054
:1039E0002046611CCCB2285C000205990843059072
:1039F0002046611CCCB2285C029002984006400F21
:103A0000019002980007000F02900298002801D14F
:103A1000012002900198002805D10598002802D1C4
:103A2000FE20074027E0002623E0019806280ED15B
:103A300006217143BE4A8818FCF7EEFB002816D019
:103A40000120B0400599084380B205900FE00120A5
:103A5000B04005990840002809D006217143B44AB6
:103A60008818FCF7D9FB002801D1FE200740701C04
:103A7000C6B2102ED9DB0398002802DB0398072872
:103A800001DD012000E00020012801D1FD200740D8
:103A90000498002804DB0498052801DC012000E0DC
:103AA0000020002801D1FB2007407807400F07289D
:103AB0000BD19D49039808709C49049808709D4952
:103AC000059808809C490298087000223946032016
:103AD000FDF730FA1AE12046611CCCB2285C974908
:103AE0000870084601780120884095490880002226
:103AF00011460420FDF71EFA08E1072600BF00BFAB
:103B000000BF2046611CCCB22F5C3807000F059027
:103B10003806070F2046611CCCB2285C0490204672
:103B2000611CCCB2285C0002049908430490204632
:103B3000611CCCB2285C0004049908430490642101
:103B4000049803E0E0E0B0E03EE033E04843049056
:103B50007C48016A04988847002801D1FE2006406D
:103B60000598002802DB0598072801DD012000E008
:103B70000020012801D1FD200640002F01DB052F88
:103B800001DD012000E00020012801D1FB200640DA
:103B90007007400F072807D16B49059808710498F2
:103BA000FCF752FB69490F70002231460520FDF7F2
:103BB000C1F9ABE0FDF714FA06465948027B3146DD
:103BC0000620FDF7B7F9A1E0032600BF2046611CDF
:103BD000CCB2285C47B22046611CCCB2285C049071
:103BE0002146621CD4B2695C09020498084304901F
:103BF0002146621CD4B2695C09040498084304900D
:103C000064210498484304902046611CCCB2285C8F
:103C100040B269460875032F01DB102F01DDFE203D
:103C20000640484A0498116A8847002801D1FE20BE
:103C300006406846007D0007011768461422825638
:103C40001011814220DC6846007D00070017002823
:103C500007DB6846007D00070017072801DC01200C
:103C600000E0002000280FD06946142008560011FB
:103C7000002806DB142008560011072801DC01206B
:103C800000E00020002801D1FD200640B007800F91
:103C9000032804D1F8B2059A049900F09DFA002295
:103CA00031460720FDF746F930E02046611CCCB2D2
:103CB000285C0607360F002E01D1701CC6B23046B4
:103CC000FCF780FC0022224B03910290FCF786FB5C
:103CD00005910490FCF7A8FC1E490860084600689E
:103CE000FCF770FC00221A4B03910290FCF7C4FA17
:103CF00005910490FCF798FC1749086000221146D2
:103D00000820FDF717F901E009B0F0BD00BF0898E1
:103D1000844200DA13E600BFF6E700000C02002040
:103D2000C81000205F010020E5010020E401002010
:103D30007B010020E2010020E7010020E9010020D2
:103D4000EA010020C4B80008DB010020E0010020E7
:103D500080842E411002002014020020FFB58BB099
:103D60000C4615461E462A494868804700284DD112
:103D70002748C1680B988847072C24D12549085D3E
:103D8000FCF720FC0022244B07910690FCF726FB51
:103D900009910890FCF748FC0A9001200021069147
:103DA00007910891029103910990049105900521D2
:103DB0001A4801910090164800238769184918464F
:103DC0000A9AB84715E0012100221498069207923A
:103DD000039204920296059208910990082000929D
:103DE00001900C48025D0A4801232946876918465C
:103DF000B8471498002805D10548416B0948006868
:103E0000884703E00248416B002088470FB0F0BDAF
:103E1000C4B8000821B9000800408F408545010062
:103E200050C3000028020020F0B587B004460D46BC
:103E300016461F46002106916846007E01090901C9
:103E400006916846007E1021884306906846007EF1
:103E50002021884306906846007E402188430690D2
:103E60006846007E8021884311490978C901802273
:103E700011400843069000F0E1F9002815D10C9894
:103E80006946E0C103900B480078062250430A4A75
:103E90008118062204A8FCF794F906AB224605997E
:103EA000049800F073F907B0F0BD0520FBE70000AF
:103EB0005F010020010200207B0100207CB5044648
:103EC0000D4616460021019168460079E02188439D
:103ED000403001902B462246002101A80096FFF7B2
:103EE000A3FF7CBDF3B599B0002501208B49087074
:103EF0008B488C494A57805C8849C8708A4A19980F
:103F0000D168884787480078072830D18449854A96
:103F10005357C85CFCF756FB06460022834BFCF760
:103F20005DFA07910690FCF77FFB0446804800216C
:103F300005910691079108900120052201910094B6
:103F40000292039104907B487B4A5356C1567648AF
:103F500000237A4AC6691846B04779480178724802
:103F6000426A002090470021764A03C250E06D4823
:103F70000078062826D16E48002105910691079108
:103F80000890012008220190029203910490644855
:103F9000644900228A56805C00906648664A002385
:103FA000D356C156604801230022C4691846A04771
:103FB000634801785C48426A012090470021614AC9
:103FC00003C225E05A480021059106910791089007
:103FD0000120082201900292039104905048514917
:103FE00000228A56805C00905248534A0023D356E0
:103FF000C1564D4800231A46C4690120A0475048C5
:1040000001784948426A0120904700214D4A03C285
:104010004D480078FF2802D106201BB0F0BD4A4869
:104020000078002802D1494A106050604848006872
:104030000121084346490860464803F047FE03F063
:10404000C1FC06460F4618A9497A13225143424A39
:10405000891808460B30FCF7E9F83C4B0CCB101ADA
:104060008B410AD218A9497A132251433A4A891836
:1040700008460B30FCF7DAF801E0344903C9301A7E
:104080008F4125D218A9497A13225143324A8918FF
:1040900008460B30FCF7CAF82C4A13685268181A05
:1040A0008A410AD218A9497A132251432A4A891807
:1040B00008460B30FCF7BAF801E0244903C904466E
:1040C0002146264803F0F2FD244803F0FFFD23E0DB
:1040D00023480078012819D12248C07900022149DB
:1040E0008979401885B220480580402109A8FCF74D
:1040F00081F82A461DA109A804F058FA09A8FCF77E
:1041000084F884B2214609A8FEF710FC0C48017817
:104110000548826A1348904700207EE7C8100020B7
:1041200021B90008E5010020C4B8000800408F4014
:10413000C0C62D0029B90008E4010020A8610000D4
:104140005201002030020020E9010020F801002087
:1041500004020020B4100020680100200C1100208F
:10416000F0000020240F0020300100200D0A2070F4
:10417000726F6D70742073656E64206672616D6518
:10418000204E6F3A202564200D0A0000FFB585B04F
:104190000EADE0CD00241198029701960095039092
:1041A00005A80FC8FFF7AEF90446002C02D0204640
:1041B00009B0F0BD00200449887048700699059840
:1041C000FFF790FEF4E70000C810002001490870D6
:1041D000704700005F01002037B5044600206946A3
:1041E0004872062161430E4A8818062201A9FBF78E
:1041F000E8FF0120A0400B490988084309490880CD
:1042000006216143064A8818FCF706F8002806D103
:104210000120A040034909888143024801803EBD36
:104220007B010020E201002041B2024A1170024AE3
:1042300011707047E5010020E6010020F0B58BB059
:10424000002400200990924800780890002703F08D
:10425000B9FB03910290002004900590069007900E
:104260008C4B029903980CCB891A98418A4B0CCB42
:10427000511A834103D20020874A10605060002108
:10428000C9430091019100245CE084480078012832
:1042900049D113216143824A891808460B30FBF744
:1042A000C5FF05460E46132161437D4A8918C81C87
:1042B000FBF7BCFF039B029A101A8B41281A9E4100
:1042C00009D2132060437649401802460B32002081
:1042D0000146FBF7C2FF13216143714A8918084662
:1042E0000B30FBF7A3FF002358405940084327D069
:1042F000132161436A4A891808460B30FBF796FF81
:10430000019B009A801A994108D213216143644AA3
:10431000891808460B30FBF789FF01E001990098E6
:10432000019100900CE00020009001901320604368
:104330005B49401802460B3200200146FBF78DFF17
:10434000601CC4B2012CA0DB002451E00120A0407D
:10435000544909880840002847D006216143524A41
:104360008818FBF759FF002800D13FE00620604382
:104370004D4940180079000700174C4900228A5621
:1043800090420DDC06206043474940180421415605
:104390000811464900228A56904201DB012000E0C4
:1043A0000020002800D121E0062161433E4A8918FF
:1043B0004979132251433A4A891808460B30FBF7D2
:1043C00035FF002358405940084300D00EE03248E2
:1043D00001684068002359405840014300D005E07F
:1043E0003846791CCFB204A90C5400BF601CC4B27B
:1043F000102CABDB002F36DD0024791E002005F0E9
:1044000027FDC0B209902CE004A90998095C089125
:1044100039460998401CFBF783FEC8B20990062272
:1044200008995143204A8818FBF7F6FE05462048B4
:104430005922D243294603690120984701280ED109
:104440001349089808701B480068102188431949CF
:104450000860194803F07EFC00200BB0F0BD601C22
:10446000C4B2102CD0DB134800681021084000288B
:104470000CD11148009903F019FC0F4803F026FCF9
:104480000C480068102108430A4908600120E4E74D
:1044900001020020F0010020F801002000020020AD
:1044A00068010020E20100207B010020E5010020DE
:1044B000C4B8000804020020F810002010B504461B
:1044C0000A4804700A488168012088470748007834
:1044D000012805D106483421026C3920904704E0B8
:1044E00003481221026C3920904710BD5101002071
:1044F000C4B8000870B506460C463546002D01D1FB
:10450000FF2070BDE007C00F002802D00C480068F3
:10451000286008202040002805D01022094928469C
:104520001C3005F03FF910202040002805D0102253
:10453000054928462C3005F035F90020E1E7000058
:1045400024010020F50000200501002070B506467A
:104550000D463446002C01D1FF2070BDE807C00F86
:10456000002804D0132221462148FBF72AFE02200E
:10457000284000280AD0602200211E4805F020F9BA
:104580006022214613311B4805F00CF90820284011
:10459000002807D07420005D17490870084600788D
:1045A000FFF714FE10202840002802D01349A06F06
:1045B000086020202840002803D07C20005D10499E
:1045C000087040202840002803D07D20005D0D4960
:1045D000087004202840002807D07320005D0728B9
:1045E00003DC7321085DFFF71FFE0020B5E7000024
:1045F000680100207B010020F40000203802002028
:104600003C0200203D02002010B50446012C01DDD3
:10461000012010BD054804700078002802D1FEF783
:104620000DFD01E005F0A6FA0020F2E728010020C8
:104630007047000010B5002819DA1A4A03071B0F4B
:10464000083B9B089B00D2588307DC0EFF23A34046
:104650009A438B071B0E8407E40EA3401A43114BA9
:104660000407240F083CA408A4001A5118E00E4ABD
:1046700003231B02D21883089B00D2588307DC0E49
:10468000FF23A3409A438B071B0E8407E40EA3402D
:104690001A43054B032424021B198408A4001A5151
:1046A00010BD00001CED00E000E100E070B500244A
:1046B0000CE0002506E00020E900074A89180855AB
:1046C000681CC5B2802DF6DB601CC4B2082CF0DB80
:1046D00000F004F970BD00007C04002070B50024D7
:1046E0000CE0002506E00020E900074A891808557B
:1046F000681CC5B2802DF6DB601CC4B2022CF0DB56
:1047000000F0ECF870BD00007C040020F7B5002537
:104710007F2801DC3F2900DDFEBD0B46CE17760F5A
:10472000F618F6100727BE1BF2B2CE17760FF61852
:10473000F610F6008E1BF4B207231E1B0123B340B4
:10474000DDB2029B002B09D0C3000A4E9B199B5C73
:104750002B43C600074FF619B35408E0C300054EBB
:104760009B199B5CAB43C600024FF619B35400BFC4
:10477000D2E700007C04002000B585B05548C06A2F
:10478000012108435349C8620846C06A0221084310
:104790005049C8620120C00300900120019002909E
:1047A0000390694605200007FCF7C8FC0122D103ED
:1047B00005200007FCF7B8FD0F20000300906946B4
:1047C0004548FCF7BBFC01220F2109034248FCF7D6
:1047D000ABFD0122D10305200007FCF7A5FD012256
:1047E00091033D48FCF7A0FD0022012109033A484E
:1047F000FCF79AFD6420FCF77FFC01221103364888
:10480000FCF792FD0021AE2000F03CF90021D520FC
:1048100000F038F90021502000F034F90021A820E0
:1048200000F030F900213F2000F02CF90021D320C6
:1048300000F028F90021084600F024F9002140206A
:1048400000F020F900218D2000F01CF90021142037
:1048500000F018F90021202000F014F900210220B6
:1048600000F010F90021A12000F00CF90021C02077
:1048700000F008F90021DA2000F004F900211220EC
:1048800000F000F90021812000F0FCF80021EF2069
:1048900000F0F8F80021D92000F0F4F80021F12010
:1048A00000F0F0F80021DB2000F0ECF800213020CF
:1048B00000F0E8F80021A42000F0E4F80021A62090
:1048C00000F0E0F80021AF2000F0DCF8FFF7EEFE8A
:1048D00005B000BD001002400004005070B5002477
:1048E0001CE02146B031C8B2002100F0CBF8002115
:1048F000084600F0C7F80021102000F0C3F800259A
:1049000008E0E900074A8918085D012100F0BAF8BB
:10491000681CC5B2802DF4DB601CC4B2082CE0DB3F
:1049200070BD00007C040020FFB585B00F46164620
:104930001C4602972046E217520F1218D210E317B6
:104940005B0F1B18DB10DB000094E31A01D001237E
:1049500000E00023D2182146E30F5B185B105A4396
:10496000D2B2019230462038C6B200254EE00C2C5F
:1049700006D10C20704328494018405D049012E095
:10498000102C05D1300125494018405D04900AE003
:10499000182C06D12420704321494018405D049012
:1049A00001E009B0F0BD0020039029E080210498C7
:1049B0000840002805D039460E9A0598FFF7A6FE54
:1049C0000AE00E98002801D1012000E000200246F4
:1049D00039460598FFF79AFE04984006000E0490A9
:1049E000781CC7B20298381AA04205D1029F0598D8
:1049F000401CC0B2059006E00398401CC0B2039072
:104A000003980828D2DB00BF681CC5B20198854214
:104A1000ADDB00BFC5E7000004A1000878A50008D1
:104A200068AB0008F8B506460F4615461C4621E05F
:104A3000E10F091949108022511AB14202DA002609
:104A40003819C7B24020001BB84204DA00200646DD
:104A50000746FFF72BFE012000902A7823463946AF
:104A60003046FFF761FF2046E10F09184910891908
:104A7000CEB26D1C28787E2802DC28782028D7DA70
:104A8000F8BD000070B504460E46012E05D1012286
:104A900089032048FCF748FC05E000220121890336
:104AA0001C48FCF741FC00220121C9030520000736
:104AB000FCF73AFC00251EE00022012149031548BD
:104AC000FCF732FC80202040002805D00122D103D1
:104AD0001048FCF729FC05E000220121C9030D481C
:104AE000FCF722FC012251030A48FCF71DFC60067A
:104AF000040E681CC5B2082DDEDB0122D10305209F
:104B00000007FCF711FC012291030248FCF70CFCA2
:104B100070BD0000000400500120044908700448E2
:104B20000068042188430249086070472E02002073
:104B3000040200201CB50F480068102188430D496D
:104B40000860FFF77BFB002813D10A480078C007F4
:104B5000C00F00280DD00848007806225043074AAD
:104B6000811806226846FBF72CFB01990098FFF795
:104B7000B9F91CBD04020020010200207B010020C5
:104B800070B504460E462078C009002802D00120E6
:104B9000164908702078C007C00F00280FD00220E7
:104BA00004F018FE0546002D08D0012028700020D2
:104BB000687029460E48007804F0D0FE00BF2078C7
:104BC0008007C00F00280DD020784007C00F0028B4
:104BD00008D008480068401C064908603146204655
:104BE000FEF794F901200449087070BD15010020FA
:104BF000CC000020180100201D0100201CB57B48BE
:104C00000078C007C00F00287ED0794800780028BF
:104C100043D176480078C009002806D0754800784E
:104C2000754908700020754908607348007871491B
:104C30000978884219DB00206F49087070490870B4
:104C400070480068401C6F4908606F480078002871
:104C500004D16A480068401C684908606B480068D5
:104C6000400840006949086017E060480078400843
:104C700040005E490870FFF7E1FA00280DD1644852
:104C8000007806225043634A811806226846FBF7E3
:104C900098FA01990098FFF725F9544800788007A1
:104CA000C00F00281FD056484078012805D05A4828
:104CB00000785A490978884215DD00205849087063
:104CC00051480078002804D14C480068401C4B49EA
:104CD0000860514800784A4988704C48006840088C
:104CE00040004A4908604E480078012865D147488D
:104CF00000681021084000285FD1494908704648E3
:104D000000784649097800E038E0884237DA4248BE
:104D10000078082833DC40480078401C3E49087081
:104D20000878C10F091849104900411A01290DD10D
:104D30003C4900200856401E002803DD002008568C
:104D4000401E00E0002040B2364908702748007835
:104D50004008400025490870FFF770FA00282CD160
:104D60002B480078062250432A4A811806226846BA
:104D7000FBF727FA01990098FFF7B4F81DE02A48DD
:104D80000088072108432849088020480068400817
:104D900040001E4908600020194948701E480078EC
:104DA000887019480078002804D114480068401C15
:104DB0001249086000201249087014480068022156
:104DC0000840022804D11148006888430F49086050
:104DD0000E480068002804D109490448FEF7F6FA95
:104DE00002E0124802F072FF1CBD00000C0200201D
:104DF00064010020E7010020E801002054010020A8
:104E0000C8100020600100205C0100200402002086
:104E1000010200207B0100202D0200202C02002036
:104E20002E020020E5010020E2010020B410002045
:104E3000FFB593B004460D4600200F900E900D90E4
:104E40000C900B90FF200A900020099008900026FB
:104E50000790FE480690FE48059000270020049029
:104E6000FC480078022803D0FB49C86A804707E065
:104E7000FA4800788006800F002801D100F096FCE7
:104E8000F74802F067FF0F98411CC9B20F91215CEF
:104E9000119110A800794009012806D003287DD07F
:104EA00005287CD007287BD1EBE2EE48007801286A
:104EB00000D1F7E2681E81B2EB4BEC480268601C3F
:104EC000FEF76CFA10A80079E749491E0870281F00
:104ED00081B208ABE5480268E348401EFEF7EEF9F0
:104EE000281FE149491E085C0643E81E085C0002D1
:104EF0000643A81E085C00040643681E085C000602
:104F00000643089886427DD1D44800780221884320
:104F1000801CD2490870D6491698087315984881A4
:104F2000CB48CA4B0090D3480288CF49CF4800688D
:104F3000FEF7EEF9CC48401E0079CF490860CA4818
:104F4000401E4079000209680843CB490860C64802
:104F5000401E8079000409680843C7490860C248B8
:104F6000401EC079C5490860BF48401E007A000253
:104F700009680843C1490860BB48401E407A0004E4
:104F800009680843BD490860B748401E807A00069A
:104F900009680843B9490860B34802E08BE089E03A
:104FA0006EE2401EC07A4006400FB5490870AE4818
:104FB000401EC07A0007000FB2490871AA48401E7F
:104FC000007B0007000FB049086008460068002811
:104FD00001D101200860AC480068FBF7F3FA002219
:104FE000AA4B01910090FBF7F9F903910290FBF7AE
:104FF0001BFBA549086008460068FBF7E3FA00229E
:10500000A24B00E04BE001910090FBF735F90391D2
:105010000290FBF709FB9E490860681E10282BDDF3
:1050200050206946087303200190002000901FE083
:1050300000980D308C49491E095C00980E308A4A50
:10504000521E105C0002084300990F31515C0904A4
:10505000084364214843029001A807C8FFF7BCF841
:105060000198401CC0B201900098C01CC0B20090D2
:1050700001980828DCDB00BF78480078802188434D
:1050800080307649087001207649087081490020F7
:1050900008568149087000207549087002E0052013
:1050A000734908706D48007840084000401C6B4907
:1050B0000870F7E100BF0F98411CC9B20F91205C46
:1050C0000E900F98411CC9B20F91205C00020E99FE
:1050D00008430E900F98411CC9B20F91205C000448
:1050E0000E9908430E900F98411CC9B20F91205C95
:1050F00000060E9908430E9060490E980968884290
:105100003DD06648006807901DE00798FBF784F8DB
:105110000E99884212D151480078082188430830FE
:105120004E4908700798001D0690079814300590A6
:1051300007982430FBF770F8074607E007982830F7
:10514000FBF76AF8079007980028DED100BF4348B4
:1051500000780007C00F00281DD1404800784008A3
:105160004000401C3D4908700720414908704C48E8
:105170000068400840004A49086017B0F0BD374851
:105180000078082188433549087030480690304837
:105190000590444807682F480078002808D0404808
:1051A0000068022108433E4908603F4802F08EFD36
:1051B0000F98411CC9B20F91215C10910F98411CAE
:1051C000C9B20F91205C0D9908430D900F98411CB6
:1051D000C9B20F91205C00020D9908430D9010A8F0
:1051E00000780007000F08300B90281F205C064352
:1051F000E81E205C00020643A81E205C0004064353
:10520000681E205C00060643B9B20D98401A0C9047
:105210000C9800286BDA380C0004012212040D9956
:1052200089180843074608A80121019700910290B8
:10523000281F81B220460E9B069AFDF7B5FE0898FE
:10524000864233D10120049062E00000040F002068
:10525000140F002050010020C4B800080C020020E8
:10526000341100205E010020251000203C010020A8
:10527000C810002040010020440100204801002007
:10528000E0010020DB0100201002002080842E417C
:1052900014020020E6010020E50100204C0100205E
:1052A0000402002058010020B410002000200490C7
:1052B0007E4800780007C00F002807D00D990F46E0
:1052C000084607992431FAF7BFFF03E00D98074617
:1052D0007749086008A80121019700910290281FD2
:1052E00081B220460E9B069AFDF75EFE10E0380C58
:1052F00000040D990843074608A801210197009171
:105300000290281F81B220460E9B069AFDF74CFEA4
:105310000498012802D00898864273D16348007827
:1053200002218843801C61490870624916980873FD
:1053300015984881002048725F4908605B480078F2
:105340000007C00F002805D0079924313846FAF726
:105350007BFF01E05648076010A800794009052846
:1053600003D101205549087002E00020534908701C
:1053700010A800788006C00F002806D001204D49F3
:1053800048704F4802F0E6FC0BE0002049494870A5
:105390004C4800784C490978884202DD484802F0C0
:1053A000D9FC10A800780007000F002804DD0821B0
:1053B00020460B9AFEF7BEFA281F0B99401A0028C8
:1053C0003FDD0B98411CC9B20B91205C0A90281F4D
:1053D0000B99401AC0B209900A98002813D13B4893
:1053E00001210197009102900B98201803900E9BC9
:1053F000069A0999FEF704F800213448099AFEF745
:1054000099FA1EE028E031480121019700910290AD
:105410000B98201803900E9B059A0999FDF7F0FF51
:105420002248007804218843001D20490870214942
:105430000A980871491D2548FAF706FF1D49099881
:1054400048721A48007840084000401C174908700C
:1054500000201849087012E00020164948701348CF
:10546000007840084000401C10490870082011498D
:10547000087017480068400840001549086011E0AE
:1054800000BF0A48007840084000401C07490870E7
:105490000120084908700E480068400840000C4987
:1054A000086000BF00BF00BF67E600000C020020DC
:1054B00058010020C8100020600100206501002074
:1054C000481100202D0200202C0200202410002072
:1054D0000402002010B50C480078022802D00B49C5
:1054E000C86A80470A4800788006800F012809D1E1
:1054F0000748007840084000401C05490870042017
:105500000449087010BD000050010020C4B8000814
:105510000C020020C810002010B50C4800780228AA
:1055200002D00B49C86A80470A4800788006800F7D
:10553000012809D10748007840084000401C05496F
:10554000087003200449087010BD000050010020BD
:10555000C4B800080C020020C8100020F0B589B0C3
:1055600002F030FA05460E4653480078022803D070
:105570005249C86A804701E000F018F950480078A5
:10558000062148434F4940184079132148434E496A
:105590004018C21C28463146FAF75FFE4B48007897
:1055A000012831D146480078062148434549401832
:1055B000407913214843444940180B300290404839
:1055C0000078062148433F49401840791321484359
:1055D0003D4941184878097804020C4300203C4AB0
:1055E00006CA0392049105902046039B049A0599EC
:1055F000FAF7AAFD364B0CCB801A99410191009025
:10560000029AFAF72AFE10E02D4800780621484356
:105610002C4940184079132148432B494018024631
:105620000B3200200146FAF718FE2A4860C02849CC
:1056300003C9294A178800220692079108903A4622
:10564000069BFAF781FD224B0CCB801A9941234B24
:105650000CCB80185941214A03C221480078012807
:1056600014D120480168204802F020FB1E4802F0B7
:105670002DFB11480078022812D01C4801681C48F4
:1056800002F014FB1A4802F021FB09E019480078E7
:1056900040084000401C1749087000201649087057
:1056A00016480078002804D115480078401C144999
:1056B000087009B0F0BD000050010020C4B8000817
:1056C000010200207B010020680100200002002070
:1056D00030020020F0010020EA010020F801002043
:1056E0005D01002020020020201100202402002063
:1056F000341100200C020020C8100020640100209A
:10570000E801002010B50A480078022803D00949B2
:10571000C86A804701E000F049F80748007840086F
:105720004000401C0449087002200449087010BD64
:1057300050010020C4B800080C020020C81000204E
:10574000F8B5052500240026134800781349097888
:10575000401A44B2002C00DA0024032C00DB082598
:10576000062C00D101260E480078302188430C49D0
:1057700008700C490978062251430B4A8818FAF739
:105780004BFD074600202B46324621460090384606
:10579000FEF7E4FAF8BD0000E5010020E00100207A
:1057A0000C020020010200207B010020F8B52348F4
:1057B000007801280CD12249484204F049FB2149D4
:1057C00046183146204802F071FA1F4802F07EFA6E
:1057D000052400251D480079032800DB08241B4808
:1057E0000079062800D10125194800783021884326
:1057F0001030174908701748007802280ED0134857
:10580000FAF70AFD0646002000901048007941B2E0
:1058100023462A463046FEF7A1FA0DE00B48FAF778
:10582000FBFC0646012000900848007941B223465F
:105830002A463046FEF792FAF8BD000064010020C7
:1058400040420F0080841E0048110020DB01002030
:105850000C0200205001002030B591B00024124805
:105860000078012817D11148C07900020F498979C1
:10587000401884B2402101A8FAF7BCFC22460CA1D2
:1058800001A802F093FE01A8FAF7BFFC85B22946F1
:1058900001A8FDF74BF80E4801780E48826A0348CC
:1058A000904711B030BD0000F0000020240F002010
:1058B0000D0A2064656C617965642073656E6420EF
:1058C0006672616D65204E6F3A202564200D0A00D6
:1058D00052010020C4B80008012001490870704737
:1058E0001C0100207047000010B50248FCF724FBA3
:1058F00010BD0000600E002010B572B601F060FF10
:1059000000F06EF802F0C6F800F06CFB01F046F80B
:1059100062B610BDF0B585B0092001F083F80390A0
:10592000062001F07FF80704072001F07BF8000251
:105930000743082001F076F807433C462046FAF773
:1059400041FE00221F4B01910090FAF747FD0546EA
:10595000FAF76AFE02900021092001F0F1FE3B20D7
:1059600001F060F8BF2108400446403421463B2046
:1059700001F0E6FE00BF3B2001F054F82021084072
:105980002028F8D0104801F09DF93B2001F04AF89A
:10599000BF2108400446403421463B2001F0D0FEA0
:1059A00000BF3B2001F03EF8202108402028F8D01D
:1059B0000920039901F0C4FE029801F083F905B0B3
:1059C000F0BD000080844E4000A1BC3310B50348F8
:1059D000FCF7F4FA00F004F810BD00007C08002089
:1059E00010B51348134908601348FCF704FB00285E
:1059F0001DD10F4810490860FF2005304860002184
:105A00000D4881601021C1610021C16041610161C7
:105A10000162012149028161002181620721C16285
:105A20000021416200F00AF80348FCF7E8FA10BDD3
:105A300000300140840300207C08002010B586B0AF
:105A400004461F48C06A012108431D49C86220203E
:105A50000190022002900390032004900020059002
:105A600001A905200007FBF769FB802001900020B9
:105A700005900220039001A905200007FBF75EFBBB
:105A800040200190002005900220039001A90520EC
:105A90000007FBF753FB10200190012002900390B8
:105AA0000320049001A905200007FBF747FB0448E9
:105AB000406B0121090308430149486306B010BD4A
:105AC000001002403EB5002400200290401E0190CC
:105AD00001200003012302AA01A900900448FCF759
