:020000040800F2
:1000000010170020D50000082D490008E530000831
:1000100000000000000000000000000000000000E0
:10002000000000000000000000000000256400083F
:100030006510000800000000CD5B0008797F000813
:10004000E9000008E9000008055C0008E900000874
:10005000E900000875100008CD100008051100081F
:1000600000000000E9000008E9000008E9000008BD
:10007000E9000008E900000800000000D98000083D
:1000800000000000E900000800000000000000007F
:10009000E900000800000000E9000008E90000088D
:1000A000E9000008E9000008E9000008F18B0008F9
:1000B000E9000008E900000800000000000000005E
:1000C0000348854600F026FC00480047AD9700082D
:1000D000101700200548804705480047FEE7FEE767
:1000E000FEE7FEE7FEE7FEE7FEE70000718000089E
:1000F000C100000830B50B46014600202022012433
:1001000009E00D46D5409D4205D31D469540491B4B
:100110002546954040191546521E002DF1DC30BD94
:1001200070B500242546002801DA01244042002948
:1001300001DA01254942FFF7DDFFAC4200D0404221
:10014000002C00D0494270BDF0B51FB486B000202D
:100150000090019002900698069980B2049007984A
:10016000090C02040014114307900027089D099808
:1001700006913E463C4603900398A9B20204000C47
:10018000039004982D0C154348430021224600F0AB
:10019000EFFAC719714110340E46402CECDB38469B
:1001A000029A00F0E5FA009A019B801800905941EC
:1001B00002980191103002904028CCDB00980BB0DF
:1001C000F0BD03460B439B0703D009E008C9121F8B
:1001D00008C0042AFAD203E00B780370401C491CC3
:1001E000521EF9D27047D2B201E00270401C491E83
:1001F000FBD270470022F6E710B513460A460446C4
:100200001946FFF7F0FF204610BD421C0178401C44
:100210000029FBD1801A70470321001D401E03787E
:1002200012021A43491EF9D510467047034610B50D
:1002300008330722040E090221435B1E1C780002CA
:100240002043521EF6D510BD034603220870000A53
:10025000491C521EFAD51846704770B504460D4623
:10026000072310700E06000A3043090A521C5B1E59
:10027000F7D52046294670BDF0B5074608465840D8
:1002800087B0C00F049048000E4659004008490846
:10029000BC1A884105D2384631461E4617460B46E1
:1002A00002465800400810434CD0300D03904005E2
:1002B0005900400D490D0590401A0290402872DA0D
:1002C00018030121000B09050843019004980092CE
:1002D000002805D0019952420020884100920190E7
:1002E000029840210A1A0199009800F041FA054647
:1002F0000C466B4607CB00F05CFAC0197141039ABB
:100300000E0D0023D71756401A467A40164344D0A4
:10031000049A002A2DD0029A012A039A15DC1205AC
:10032000C01A914101263605001C7141D20F059E6D
:10033000D2070093019202962A46234600F059FA0A
:1003400007B0F0BD38463146FAE71605224A0F4697
:10035000B218C01AB74101210905001C4F4100180D
:100360007F41114618187941E20F10436D1964411D
:1003700013E0E2076D0815436408C2071443039AAB
:1003800001261205C01A91413605001C7141CE07A5
:10039000400830434908C01851412A46234600F01E
:1003A0001BFACDE7FFE7049801224000C117121A9B
:1003B00000238B4104983146C417381AA141EEE757
:1003C00030B40124E407634030BC55E730B4012465
:1003D000E407614030BC4FE70000E0FFF0B51FB418
:1003E00088B00B990998002448400999C00F49002A
:1003F00049080991C0070B990090490049080B91E1
:1004000009990898A64608431CD00B990A980843F6
:1004100018D0099801244000420D4800410D099868
:1004200024050003000B204309900B980003000BE8
:1004300020430B9050181C4940180022019014468C
:10044000104605E0002001460DB0F0BD032801DA9A
:10045000034600E003239C46C11A0AAE0AE05F008F
:1004600008ADED5B4F00F75B7D430027AA187C4188
:10047000491C5B1E6145F2DD410004AB5A52210468
:10048000120C0A43240C401C0828DFDB0198029060
:100490000099704601910090059B049A079906986F
:1004A00000F0A7F9D0E700000DFCFFFFF0B50C4607
:1004B0005C4085B0E40FE40703944C000026640818
:1004C00059009446490802460296224321D06246CA
:1004D0000A431ED06200570D4A000E032303550D38
:1004E000012402462C492405781B1B0B360B4018AF
:1004F00023432643614600901C46501AB44103D35F
:100500000098401C009002E0921800985B4100287F
:1005100003DA0020014605B0F0BD002001210905E5
:100520000746864611E064461D46141BB54106D3B6
:100530006546521BB341744607430C43A646CD079C
:1005400040084908284392185B4105460D43EAD10B
:100550001046184313D06046194650407140084376
:1005600006D06046101AB34106D20122002306E0ED
:1005700000220123DB0702E00122D243531000983E
:1005800074460105381C6141029C039D00196941B4
:1005900000F022F9BFE70000FD0300000EB5C2170E
:1005A000C10F5040CA0740180021054B0293019229
:1005B00000910A460B4600F01CF903B000BD000094
:1005C000330400000EB505490291002100910A464E
:1005D0000B46019100F00DF903B000BD330400009B
:1005E0000EB5054A0292002200921346019200F0D5
:1005F00000F903B000BD00003304000070B5CD0F5A
:100600004A0009030123090B1B0519430B4BED0796
:100610000024520D9A4201DA002070BD074B34339A
:100620009A4203DC9A1A00F0B3F802E00449511828
:1006300088402C43F1D0404270BD0000FF03000011
:10064000CDFBFFFF4A0009030123090B1B051943DA
:10065000094B10B5520D9A4201DA002010BD064B2D
:1006600034339A4203DC9A1A00F092F810BD034921
:100670005118884010BD0000FF030000CDFBFFFFB4
:100680004A0009030123090B1B0519430A4B10B546
:10069000520D9A4202DA0020014610BD064B343357
:1006A0009A4203DC9A1A00F073F810BD034BD2187B
:1006B00000F05EF810BD0000FF030000CDFBFFFF5F
:1006C00010B5002904DB0124E40740428C41214697
:1006D000002B04DB1C460123DB075242A3418B4263
:1006E00000D1824210BD000010B5002904DB0124B6
:1006F000E40740428C412146002B04DB1C460123C9
:10070000DB075242A341994200D1904210BD000044
:10071000F0B51FB40646002082B005464024019182
:1007200000901BE0019922460F46304600F030F859
:10073000049A059B801A994110D310461946224607
:1007400000F016F8361A8F41019722460120002149
:10075000009F00F00DF838184D4100902046641EAF
:100760000028DFDC019B00982946324607B0F0BD27
:1007700010B5202A04DB0146203A9140002010BD2C
:10078000914020239C1A0346E3401943904010BD3A
:1007900010B5202A04DB0846203AD040002110BDC5
:1007A0000B46D340D0402024A21A9140084319465A
:1007B00010BD10B5202A06DBCB170846203A1041A1
:1007C000C1170B4306E00B461341D0402024A21A68
:1007D00091400843194610BD10B5002B08DA0024DB
:1007E000401C614192185B411A4301D1400840000E
:1007F00010BDF0B51FB482B005460C0003D008460A
:1008000008F0E6FA02E008F0E3FA20300246009031
:1008100021462846FFF7ACFF049B059A04460F4685
:1008200018431143084314D0184610431BD00098B6
:1008300040210A1A18460599FFF7AAFF05460E46F9
:10084000009A05990498FFF793FF084305D001200B
:1008500004E02046394607B0F0BD0020C11705432B
:100860000E432C43374300990E986305401A7905CF
:10087000E40A00220C43FD0A0A3002D5002001469A
:10088000E9E70105101969410C9C0D9D00196941AA
:10089000FFF7A2FFDFE70000F8B505464800400873
:1008A0000C46284304D06000184A400D904201DDF8
:1008B0002846F8BD15493539884210DC88420BDBE3
:1008C000290D200308432903014305D0E00F1049F7
:1008D000C00741180020F8BD00200146F8BD161AD7
:1008E0004020821B28462146FFF742FF0746009121
:1008F000284621463246FFF74BFF3A46009BFFF75A
:100900006BFF3246FFF734FFF8BD000033040000F0
:100910000000F03F064C0125064E05E0E36807CCD9
:100920002B430C3C98471034B442F7D3FFF7CCFB71
:10093000ECC000080CC1000870B58C180578401C8C
:100940006B075B0F01D10378401C2A1106D1027896
:10095000401C03E006780E70401C491C5B1EF9D158
:100960002B0705D40023521E0DD40B70491CFAE747
:100970000378401CCB1A921C03E01D780D70491CB3
:100980005B1C521EF9D5A142D8D3002070BD30B5F2
:1009900089B005460C461022002105A808F018FF72
:1009A000224605A905A808F0CEFB6846007D8021F7
:1009B000084000281CD000BF00200AE005A9095CFF
:1009C000490005AB421C9A5CD211114305AA11548F
:1009D000401C0F28F2DB08A9C97849060A0E08A9AD
:1009E000CA7000BFC8788721484008A9C87016E0BF
:1009F00000BF00200AE005A9095C490005AB421CC4
:100A00009A5CD211114305AA1154401C0F28F2DB45
:100A100008A9C97849060A0E08A9CA7000BFFF20B4
:100A20001530005910280FD100BF002009E0E11D4A
:100A3000FA31095C05AA125C5140E21DFA321154E8
:100A4000401C1028F3DB61E06846007D80210840EF
:100A500000281CD000BF00200AE005A9095C49005D
:100A600005AB421C9A5CD211114305AA1154401CDB
:100A70000F28F2DB08A9C97849060A0E08A9CA702E
:100A800000BFC8788721484008A9C87016E000BF99
:100A900000200AE005A9095C490005AB421C9A5CEC
:100AA000D211114305AA1154401C0F28F2DB08A9EA
:100AB000C97849060A0E08A9CA7000BF8021FF2024
:100AC00015300259E01DFA30815406E00021FF2064
:100AD00015300259E01DFA308154FF2015300059BD
:100AE000401CFF21153108511028EFD300BF002012
:100AF00009E0E11DFA31095C05AA125C5140E21DD2
:100B0000FA321154401C1028F3DB00BF00BF002054
:100B10000AE02146F131095CE21DFA32125C5140D3
:100B20002246F1321154401C1028F2DB00BF102283
:100B30002146F13101A808F03FFE2246294601A8CE
:100B400008F001FB1022002105A808F041FE09B0C1
:100B500030BD10B50446102200212046F13008F0C7
:100B600037FE0021FF2015300151F022204608F009
:100B70002FFE10BD70B504460D46224610212846B2
:100B800008F00EFB70BD0000F0B585B004460F46BE
:100B900015463C480068401C3A490860FF20153063
:100BA000005900283ED0FF20153000591021081AA6
:100BB000A84204D2FF2015300059081A00E0284648
:100BC0000646FF2115310A59E11DFA315018324607
:100BD000394608F0F1FDFF20153000598119FF203A
:100BE000153001510059102801D3B54201D105B08B
:100BF000F0BD00BF00200AE02146F131095CE21D92
:100C0000FA32125C51402246F1321154401C102835
:100C1000F2DB00BF22462146F131084608F093FA84
:100C2000BF19AD1B21E000BF002008E02146F131D3
:100C3000095C3A5C51402246F1321154401C1028A4
:100C4000F4DB00BF10222146F131684608F0B4FD04
:100C500022466946684608F076FA10226946204620
:100C6000F13008F0A9FD1037103D102DDBD82A46D1
:100C70003946E01DFA3008F09FFDFF201530055180
:100C800000BFB4E76802002010B504460D480470A8
:100C90000D480E49086001210C4803F015FE0121A2
:100CA0000A4803F0E5FD0949086800F043F900210E
:100CB000032002F035F901210248007809F038FAE2
:100CC00010BD0000E400002060051200AC0D002003
:100CD000F0B591B00E4600240025002000900120C0
:100CE000C003304000287CD0BEE02878012804D022
:100CF000022862D0042875D19BE00121084602F049
:100D00000FF97B48007800282ADD79480078401EDA
:100D10007749087077480188774801F0FFFF48203D
:100D200009F000F90446002C42D048220021204658
:100D300009F0EEF8032020706E480078801C607087
:100D40006C4802886C492046083009F0D3F82146E7
:100D50006A48007809F0AAF9204609F0FAF827E075
:100D6000482009F0DFF80446002C21D04822002159
:100D7000204609F0CDF80320207046206070002046
:100D800004E0214608310854411CC8B24628F8DB6B
:100D900021465A48007809F089F9204609F0D9F827
:100DA00057A009F089FA87B2394655A001F0B6FF7D
:100DB0000021012002F0B4F852E00121022002F0EB
:100DC000AFF803F009FE5149086800F0B3F80020BD
:100DD00000904F480078401C4D49087040214D4814
:100DE00001E04EE03BE0FFF705FA6A78294608315A
:100DF000484809F07FF8687800900021454A00983B
:100E000011540C232421002003F08AFF03F0E4FE98
:100E100001213DA001F082FF3E48FFF7F6F987B2BD
:100E200039463C4801F07AFF0021022002F078F8B0
:100E300016E0402101A8FFF7DDF9697AA87A0002DF
:100E40000B182A7A34A101A807F0AEFF0C2301AADF
:100E50002421002003F064FF03F0BEFE00E000BF89
:100E600000BF284609F075F83148007809F0DAF833
:100E7000050000D039E730460121C903484011B0D0
:100E8000F0BDF007C00F002824D00021012002F09F
:100E900047F8482009F046F80446002C16D04822AE
:100EA0000021204609F034F80320207046206070AD
:100EB000002004E0214608310854411CC8B24628ED
:100EC000F8DB21460D48007809F0F0F830460121A2
:100ED0004840D4E702203040002806D001200449D1
:100EE0000870304602214840C9E70020C7E70000EB
:100EF000F0000020A400002010090020370100208D
:100F00006170702073656E640A000000AC0D0020F3
:100F100005010020580D002073656E642065727213
:100F2000207265743D25642C6E6F3D2564000000C1
:100F3000E400002070B588B004466D4600261C20F1
:100F40000AE02146C1400907090F002901D1761C9A
:100F500000E003E0011FC8B20028F2DC00BF0FA1CF
:100F6000284607F021FFED1C04E00DA1284607F0FC
:100F70001BFF6D1C3046761E0028F6D1224609A1C3
:100F8000284607F011FF0C236A460021084603F0AB
:100F9000C7FE03F021FE08B070BD000049443A00CE
:100FA000300000002578000030B50446264803785C
:100FB0000078401C244D28702448C454A01E03000F
:100FC00007F01DFF0705060F1019293233002EE028
:100FD0001D4803780078401C1B4D28701B48C154E5
:100FE00025E024E0184803780078401C164D28704E
:100FF0001648C1541BE0144803780078401C124D79
:1010000028701248C154284603780078401C287084
:101010000E48C2540BE00C4803780078401C0A4D7F
:1010200028700A48C15402E001E0012030BD00BF31
:10103000054800780F2804DC0120054B18700020BB
:10104000F4E70220F2E70000770100202C100020D6
:101050007601002008B50022009200210092684627
:10106000007808BD704710B50446204607F0B4F874
:1010700010BD000010B507F09BF8002801D004F067
:10108000DFFE10484069C007C00F002809D00E4895
:10109000C068002802D00C49C8688047012009496F
:1010A00048610848406902210840002809D00648E4
:1010B0008068002802D004498868804702200149DE
:1010C000486110BD000401402804002010B507F05D
:1010D0006FF8002801D004F0B3FE084840690421ED
:1010E0000840002809D006484068002802D004497A
:1010F0004868804704200149486110BD0004014050
:101100002804002010B507F053F8002801D004F09F
:1011100097FE10484069FF2101310840002806D0A1
:10112000084600F043F8FF2001300A4948610948A9
:10113000406901218902084000280AD00648006859
:10114000002802D004490868804701208002014934
:10115000486110BD0004014028040020024600211F
:101160000FE0C800094B1858904208D8481CC0002E
:101170001858904203D9C800C01800797047481C1D
:10118000C1B21529EDD300BFFEE70000F8A40008A6
:1011900031B5002400F018F9044600BF00F014F93E
:1011A000001B00998842F9D338BD000010B50446F1
:1011B000FF200130844203D101200449087002E07D
:1011C00000200249087008F0E7FA10BD5E00002018
:1011D000F0B503460A460027002400200021DAE08B
:1011E00001258D402F4615683D402C46BC4276D1E6
:1011F0005568022D02D05568122D15D1CD08AD00CD
:101200001E46203670594D07EE0E0F25B540064696
:10121000AE4330464E07F60E1569B5402843CD085B
:10122000AE001D462035A8515568012D08D05568DF
:10123000022D05D05568112D02D05568122D18D1F8
:1012400098684E000325B5400646AE4330464E0032
:10125000D568B54028439860586801258D400646FA
:10126000AE4330461026556835402D098D40284341
:10127000586018684E000325B5400646AE43304618
:101280001579AD07AD0F4E00B54028431860D868FA
:101290004E000325B5400646AE4330464E009568E5
:1012A000B5402843D8600126360755683540B54219
:1012B00070D13B4D6D6B01263543394E7563394D09
:1012C0008E08B600A8598D072E0F0F25ED43B540A7
:1012D000284005252D07AB4202D1002515E059E035
:1012E000314DAB4201D101250FE0304DAB4201D170
:1012F00002250AE02E4DAB4201D1032505E02D4D1C
:10130000AB4201D1042500E005258E07360FB5401C
:101310002843244D8E08B600A851274D286805465D
:10132000A54328460126360455683540B54202D10A
:10133000054625432846204D286068680546A54394
:1013400028460126760455683540B54202D1054647
:1013500025432846184D6860A8680546A5432846D9
:101360000126360555683540B54202D1054625436C
:101370002846114DA860E8680546A5432846012681
:10138000760555683540B54202D1054625432846C5
:10139000094DE860491C102900D221E7F0BD00008A
:1013A00000100240080001400004005000080050F6
:1013B000000C0050001C005000040140002A01D025
:1013C000816100E081627047014800687047000059
:1013D0002000002002480068401C01490860704756
:1013E0002000002010B50948006840210843074943
:1013F0000860084600680221084304490860032089
:1014000000F006F800F017F8002010BD00200240A0
:1014100070B5044600F0B8F906467D21C900FEF714
:1014200069FE054601F0E6FA00222146501E00F052
:1014300025F8002070BD10B506F0E2FD01F00CFDAE
:1014400001F08EFC03F016FB04F0C4FE05F0C4F9B5
:1014500005F098FE07F0C4F9002007F029F806F01F
:101460001BFF10BD00BFC206D20E01219140024AEF
:10147000116000BF7047000000E100E070B5044655
:101480000D4616462946204603F052FA70BD00006C
:1014900070B504460E460025B8480068C007C00F66
:1014A000B0426ED2B5480068400840003043B349AE
:1014B000086008460068C007C00FB04201D0012094
:1014C00070BD022120680840022807D1AC48C068DE
:1014D000F0218843A1680843A949C8602078C00763
:1014E000C00F00284CD06068022809D1A4480068C9
:1014F000012149040840400C002824D10120DFE7E5
:101500006068002809D19E4800680121490208400E
:10151000400A002817D10120D2E76068032809D1CA
:1015200097480068012149060840400E00280AD16A
:101530000120C5E79248006804210840800800287F
:1015400001D10120BCE78E48C06880088000616836
:1015500008438B49C860FFF737FF054660680228DB
:1015600010D107E0FFF730FF401B8649884201D9C0
:101570000320A5E78248C0680C2108400828F1D163
:10158000DAE035E0606803280FD107E0FFF71CFFC1
:10159000401B7C49884201D9032091E77848C06804
:1015A0000C2108400C28F1D1C6E0606800280FD15A
:1015B00007E0FFF709FF401B7249884201D9032069
:1015C0007EE76F48C0680C2108400028F1D1B3E0E5
:1015D00007E0FFF7F9FE401B6A49884201D9032062
:1015E0006EE76748C0680C2108400428F1D1A3E0E9
:1015F000022120680840022807D16148C068F02114
:101600008843A16808435E49C8602078C007C00FBE
:1016100000284CD06068022809D15948006801218F
:1016200049040840400C002824D1012048E76068A4
:10163000002809D152480068012149020840400AA7
:10164000002817D101203BE76068032809D14C48E6
:101650000068012149060840400E00280AD10120F7
:101660002EE747480068042108408008002801D17F
:10167000012025E74248C06880088000616808436F
:101680003F49C860FFF7A0FE0546606802280FD1F9
:1016900007E0FFF799FE401B3A49884201D9032031
:1016A0000EE73748C0680C2108400828F1D134E023
:1016B000606803280FD107E0FFF786FE401B314921
:1016C000884201D90320FBE62D48C0680C21084060
:1016D0000C28F1D121E0606800280FD107E0FFF766
:1016E00073FE401B2749884201D90320E8E62448BD
:1016F000C0680C2108400028F1D10EE007E0FFF798
:1017000063FE401B1F49884201D90320D8E61C48CC
:10171000C0680C2108400428F1D11848006840082E
:10172000400030431549086008460068C007C00FF4
:10173000B04201D00120C3E60421206808400428FB
:1017400008D10F48C068072109028843E1680843AF
:101750000B49C860082120680840082809D10848BA
:10176000C0680721C90288432169C90008430449A8
:10177000C8600320FFF74CFE0020A1E600200240D5
:10178000001002408813000010B500F0CBF80649A5
:10179000C968F02211400909044A515CC840044953
:1017A00008600846006810BD001002402D000020AF
:1017B000000000203F21016047490968012292048E
:1017C0001140914203D10521090441600AE04249D8
:1017D0000968012212041140914201D1416001E0E7
:1017E000002141603C490968FF22013211409142C9
:1017F00002D10121C16101E00021C16136490968BE
:10180000090E016234494968072252031140490B0D
:10181000416231498968C907C90F002902D00121F5
:10182000816101E0002181612B490968C907C90F65
:10183000002902D00121C16001E00021C1602649D8
:1018400049681F2212021140090A016122494031F0
:101850000969012292021140914203D10521090236
:1018600081600BE01C4940310969FF2201321140BF
:10187000914201D1816001E000218160164940312F
:101880000969C907C90F002902D00121416101E09E
:10189000002141611049096801221206114091425C
:1018A00002D10221816201E0012181620A49C968F5
:1018B000012212041140C1620749C9680F22920433
:1018C00011408A0C02630449C96803229205114041
:1018D0008A0D4263704700000010024010B5FFF708
:1018E00053FF0549C968072212021140090A034A39
:1018F000515CC84010BD0000001002402D000020C7
:1019000010B5FFF741FF0549C9680722D20211400F
:10191000C90A034A515CC84010BD000000100240D3
:101920002D000020F8B5002400270020009000259D
:10193000002629484068072149030840450BA800B4
:1019400026490D582448C0680C210840002806D0BC
:10195000042806D008280ED00C2838D10DE02E46D9
:1019600037E01D48006810210840002801D01C4EB7
:1019700000E01C4E2DE01C4E2BE01748C0680F21E4
:101980008904084004461448C068032189050840BA
:101990000746A00C15490C5CB80D471C0E48C068E2
:1019A00001210904084000900098002807D10D4942
:1019B000614308463946FEF79DFB064606E00A49A4
:1019C000614308463946FEF795FB064601E02E4680
:1019D00000BF00BF3046F8BD00100240ACA40008B4
:1019E00000093D000024F40000127A0024000020C9
:1019F00070B5044600252078C007C00F002871D0BC
:101A0000FC48C0680C21084008280BD0F948C06881
:101A100008400C2814D1F748C06801210904084087
:101A200088420DD1F3480068012149040840400C68
:101A3000002857D049106068884253D0012070BDFB
:101A4000EC480068052109048843EA490860FFF76B
:101A5000BBFC054607E0FFF7B7FC401BE6498842A0
:101A600001D90320EBE7E34800680121490408405D
:101A7000400C0028EFD1DF480068052109048843A5
:101A800061680843DB4908600121090460688842F5
:101A900014D1FFF799FC054607E0FFF795FC401BC2
:101AA000D549884201D90320C9E7D24800680121FD
:101AB00049040840400C0028EFD013E0FFF784FCF5
:101AC000054607E0FFF780FC401BCB49884201D95F
:101AD0000320B4E7C7480068012149040840400CCE
:101AE0000028EFD102212068084002286AD1C148AD
:101AF000C0680C21084004280BD0BE48C0680840CC
:101B00000C281DD1BB48C0680121090408400028E9
:101B100016D1B8480068042108408008002804D085
:101B2000E068012801D0012089E7B24840681F2100
:101B300009028843216909020843AE49486041E02F
:101B4000E068002824D0AB48006809218843E16898
:101B50000843A8490860FFF737FC054606E0FFF791
:101B600033FC401B642801D9032068E7A1480068C2
:101B70000421084080080028F1D09E4840681F21B9
:101B8000090288432169090208439A49486019E01B
:101B90009848006809218843E1680843954908602E
:101BA000FFF712FC054606E0FFF70EFC401B642819
:101BB00001D9032043E78F480068042108408008CA
:101BC0000028F1D110212068084010286FD18948E1
:101BD000C0680C21084000281FD1864800680121F8
:101BE00049020840400A002804D0E069012801D0D9
:101BF000012024E77F484068072149038843616A40
:101C000008437C494860084640680002000A218C6D
:101C1000090608437749486049E0E06900282CD06C
:101C200074480068FF210131084372490860FFF7DA
:101C3000CBFB054606E0FFF7C7FB401B642801D934
:101C40000320FCE66B480068012149020840400A75
:101C50000028F0D067484068072149038843616A3B
:101C6000084364494860084640680002000A218C25
:101C7000090608435F49486019E05E480068FF2193
:101C8000013188435B490860FFF79EFB054606E08B
:101C9000FFF79AFB401B642801D90320CFE6554883
:101CA0000068012149020840400A0028F0D10821BB
:101CB00020680840082839D1606900281BD04D48A9
:101CC00040300069012108434A4940310861FFF76B
:101CD0007BFB054606E0FFF777FB401B642801D934
:101CE0000320ACE643484030006902210840400828
:101CF0000028F0D01AE03F4840300069400840001A
:101D00003C4940310861FFF75FFB054606E0FFF7FD
:101D10005BFB401B642801D9032090E63548403026
:101D200000690221084040080028F0D120212068E5
:101D30000840202849D1A069002826D000BF2D489E
:101D40008068012108432B4988600846406B0121C7
:101D50000843284948632948006A49140843274929
:101D6000086200BFFFF730FB054606E0FFF72CFBDB
:101D7000401B642801D9032061E61E4880680221C7
:101D8000084040080028F1D01FE000BF19488068D3
:101D900040084000174988601848006A1849084000
:101DA0001649086200BFFFF70FFB054606E0FFF784
:101DB0000BFB401B642801D9032040E60D488068D6
:101DC0000221084040080028F1D104212068084081
:101DD000042878D10748806B890608430549886341
:101DE000084800688915084306490860FFF7ECFABF
:101DF000054610E00010024088130000000001407A
:101E0000FEDFFFFF00700040FFF7DEFA401B642892
:101E100001D9032013E668480068FF21013108401A
:101E20000028F1D06548006905210902884363490B
:101E30000861FFF7C9FA054607E0FFF7C5FA401B3E
:101E40005F49884201D90320F9E55C480069012116
:101E500049020840400A0028EFD15848006905218E
:101E600009028843A1680843544908618915A0689C
:101E7000884214D1FFF7A8FA054607E0FFF7A4FA55
:101E8000401B4F49884201D90320D8E54B480069DF
:101E9000012149020840400A0028EFD013E0FFF773
:101EA00093FA054607E0FFF78FFA401B4449884242
:101EB00001D90320C3E541480069012149020840D6
:101EC000400A0028EFD1A06A002872D03B48403871
:101ED000C0680C2108400C2869D0A06A022848D1AB
:101EE00036484038006801210906884333494039A3
:101EF0000860FFF769FA054606E0FFF765FA401B40
:101F0000642801D903209AE52C4840380068012153
:101F100049060840400E0028EFD1616B206B084352
:101F2000E16A084325494039C968FD2212049143FA
:101F3000084322494039C860084600680121090663
:101F400008431E4940390860FFF73EFA054606E09F
:101F5000FFF73AFA401B642801D903206FE51748C0
:101F600040380068012149060840400E0028EFD0A3
:101F70001FE01248403800680121090688430F49D4
:101F800040390860FFF720FA054606E0FFF71CFA23
:101F9000401B642801D9032051E5084840380068F7
:101FA000012149060840400E0028EFD101E0012040
:101FB00045E5002043E5000000700040401002406D
:101FC00088130000704710B5044603F039FF06F08F
:101FD00017FA10BD10B504462068C068FF21013112
:101FE0000840000A002810D02068806809010840D5
:101FF00000280AD02046FFF7E6FF2068C06880214D
:102000000840124908432168C8602068C06801215F
:1020100049020840400A002810D020688068090161
:10202000084000280AD02046FFF7CCFF2068C0688F
:1020300080210840064908432168C8600120400407
:102040000449486101212120015510BD7FFEFFFF99
:102050007FFDFFFF00040140F0B506460C46174621
:10206000002530684068124908400546FF200004FA
:102070002840000CE0701F2000022840000A607019
:10208000A806800EA070072040032840400B207057
:10209000002F0BD1E07803F09AFDE070607803F038
:1020A00096FD6070A07803F092FDA0700020F0BD56
:1020B0003FFFFF00F0B506460C4617460025306886
:1020C000806A6060306800681249084005463F2019
:1020D00000042840000C20707F2000022840000AE5
:1020E00060706806400EA070012080052840000C3A
:1020F0002072002F0BD1207803F069FD20706078EA
:1021000003F065FD6070A07803F061FDA070002011
:10211000F0BD00007F7F7F00FEB504460D461746E8
:1021200000200190009000BF2020005D012801D117
:102130000220FEBD01212020015500BF02212120E7
:102140000155002F2AD120688068402108400028CE
:1021500000D002E00020287200BFE869002800D10A
:1021600000E000BF287803F03FFD0304687803F027
:102170003BFD00020343A87803F036FD0343287AB1
:10218000000403432021485D03F02EFD00060343B5
:10219000E86903436869034301932FE0206880687E
:1021A00040210840002804D0287803F010FD019059
:1021B00002E00020287200BFE869002805D1202134
:1021C000485D03F004FD019005E02021485D03F027
:1021D000FEFC019000BF28780004697809020843DA
:1021E000A9780843297A090408432021495D090692
:1021F0000843E9690843696908430190A969686867
:102200000843009000BFCA2021684862532021681B
:10221000486200BFFF210131686A884241D12068CD
:1022200080688843216888602068C06880210840F1
:102230004C4908432168C860FFF7C6F8064615E018
:10224000FFF7C2F8801B7D21C90088420ED900BF6C
:10225000FF202168486200BF03212120015500BFF3
:1022600000212020015500BF032062E72068C068DC
:10227000C007C00F0028E3D001982168C86100980A
:102280002168486420688068FF2101310843216883
:1022900088602068806801210903084321688860FC
:1022A00043E02068806801214902884321688860F2
:1022B0002068C068802108402B4908432168C86015
:1022C000FFF782F8064615E0FFF77EF8801B7D21B8
:1022D000C90088420ED900BFFF202168486200BFB4
:1022E00003212120015500BF00212020015500BFFE
:1022F00003201EE72068C06802210840400800282B
:10230000E2D00198216808620098216888642068FA
:10231000806801214902084321688860206880683C
:1023200001214903084321688860104800680121A1
:10233000490408430D4908600846806801214904A2
:1023400008430A49886000BFFF202168486200BF37
:1023500001212120015500BF00212020015500BF8F
:102360000020E6E67FFEFFFF7FFDFFFF0004014047
:1023700070B504462068C068A02188432168C86001
:10238000FFF722F8054608E0FFF71EF8401B7D2105
:10239000C900884201D9032070BD2068C06820218F
:1023A00008400028F0D00020F6E710B50446002CC5
:1023B00001D1012010BD0221512001552068006883
:1023C0004021884321680860204600F054F800212D
:1023D000522001555120015500BF5020015500BF2A
:1023E0000020E7E701465120405C704710B50446E5
:1023F000002C01D1012010BD5120005D002802D128
:10240000204600F039F8022151200155206800686B
:102410004021884321680860A16860680843E1683A
:102420000843216908436169084301225202A169F6
:1024300011400843E1690843216A0843A16A08433F
:1024400021680860A069000C04210840616A084303
:10245000216848602168E06A08612068C0699100CD
:1024600088432168C8610021522001550121512073
:1024700001550020BFE770477047F8B504460E4687
:1024800015461F465120005D01287CD1002E01D049
:10249000002D01D10120F8BD00BF5020005D0128B2
:1024A00001D10220F7E701215020015500BF122180
:1024B000512001550021522001552663A586E5864D
:1024C0000020E064A064A087E08701214903A06A9E
:1024D00088420DD100BF20680068884321680860E9
:1024E000206800680121490308432168086000BF93
:1024F0000121C903A068884205D1206800684910FD
:10250000084321680860206800684021084040288E
:1025100004D020680068084321680860E06800284B
:1025200032D16068002802D0E08E012808D1216BEA
:10253000481C206308782168C860E08E401EE08651
:1025400012E03B4600220221204603F0DFFE002875
:1025500001D003209FE7216B481C20630878216885
:10256000C860E08E401EE086E08E0028E9DC012194
:102570004903A06A88423AD120680068491008439C
:102580002168086033E065E06068002802D0E08ED2
:10259000012809D1206B00882168C860206B801C4D
:1025A0002063E08E401EE08613E03B4600220221BD
:1025B000204603F0ABFE002801D003206BE7206B20
:1025C00000882168C860206B801C2063E08E401E5C
:1025D000E086E08E0028E8DC01214903A06A8842F9
:1025E00005D12068006849100843216808603B460F
:1025F00000220221204603F089FE002807D0522045
:10260000005D2021084352210855032043E73B4643
:1026100001228021204603F079FE002807D05220B5
:10262000005D2021084352210855032033E7A068AC
:10263000002805D100BF2068C0682068806800BFFE
:1026400001215120015500BF00215020015500BF3C
:10265000002020E702201EE7FEB504460E4617467E
:102660001D460020019000905120005D01900198CE
:10267000012802D00198222875D1002E03D0002F06
:1026800001D0002D01D10120FEBD00BF5020005D12
:10269000012801D10220F7E701215020015500BF98
:1026A0005120005D012802D1322151200155002125
:1026B00052200155A763A587E5872663A586E58691
:1026C0000020A064E06401214903A06A88420DD182
:1026D00000BF20680068884321680860206800689F
:1026E0000121490308432168086000BF2068006891
:1026F00040210840402804D0206800680843216831
:1027000008600121C902E06888427DD16068002824
:1027100007D0FF210531606888420CD1E08E012886
:1027200009D1206B00882168C860206B801C206361
:10273000E08E401EE086E08E002820D10121490372
:10274000A06A884205D120680068491008432168C2
:102750000860002201212046089B03F0D7FD0028D5
:1027600002D0032090E742E12068C068A16B088096
:10277000A06B801CA063E08F401EE087D7E035E0AF
:10278000002202212046089B03F0C0FD002801D052
:10279000032079E7206B00882168C860206B801CCB
:1027A0002063E08E401EE086E08E00280AD10121E1
:1027B0004903A06A884205D120680068491008438F
:1027C00021680860002201212046089B03F09EFD3D
:1027D000002801D0032057E72068C068A16B08805B
:1027E000A06B801CA063E08F401EE087E08E002875
:1027F000C6DC60680028C1D1002201212046089B68
:1028000003F084FD002800E00DE001D003203BE749
:102810002068C068A16B0880A06B801CA063E08F5B
:10282000401EE08783E06068002807D0FF21053163
:10283000606888420BD1E08E012808D1216B481CCA
:10284000206308782168C860E08E401EE086E08E34
:1028500000281CD101214903A06A884205D12068C3
:1028600000684910084321680860002201212046C1
:10287000089B03F04BFD002801D0032004E72068EB
:10288000C068A16B0870E08F401EE0874FE034E025
:10289000002202212046089B03F038FD002801D0C9
:1028A0000320F1E6216B481C206308782168C8608A
:1028B000E08E401EE086E08E00280AD10121490307
:1028C000A06A884205D12068006849100843216841
:1028D0000860002201212046089B03F017FD002814
:1028E00001D00320D0E62068C068C1B2A26B501CA2
:1028F000A0631170E08F401EE087E08E0028C7DCE7
:102900006068002813D1002201212046089B03F0B3
:10291000FDFC002801D00320B6E62068C068C1B2E3
:10292000A26B501CA0631170E08F401EE087012154
:102930004903A06A884213D1002201212046089B46
:1029400003F0E4FC002807D05220005D0221084378
:1029500052210855032097E62068C06880B2029093
:10296000012280212046089B03F0D0FC002807D0DC
:102970005220005D2021084352210855032083E6A0
:10298000012151200155206880681021084000096C
:1029900000904902A06A884222D1009800281FD0E6
:1029A0005220005D022108435221085501214903AC
:1029B000A06A88420DD100BF206800688843216862
:1029C0000860206800680121490308432168086005
:1029D00000BF00BF00215020015500BF012053E679
:1029E00000BF00215020015500BF00204CE602200E
:1029F0004AE6000070B504462546681E094988422B
:102A000001D901200CE0681E074948610321081F15
:102A100001F08EFF00200449886107200861002032
:102A200070BD0000FFFFFF0000E000E010B50446AD
:102A3000002C01D1012010BD3520005D002802D1FD
:102A4000204600F00DF8022135200155211D206897
:102A500005F05CFB0121352001550020EBE700006B
:102A600010B504460748806B012108430549886377
:102A7000002211460F20FEF701FD0F20FEF7F2FCA9
:102A800010BD00000010024001460868C068012225
:102A900010430A68D06008680068012210430A6881
:102AA000106000207047704710B504462068006928
:102AB00002210840400800281CD02068C068084057
:102AC0004008002816D0481F2168086101202075A1
:102AD000206880698007800F002803D02046FFF718
:102AE000E2FF05E0204600F09DF8204600F09BF84C
:102AF0000020207520680069042108408008002813
:102B00001DD02068C06808408008002817D0C8433E
:102B1000216808610220207520688069032109026C
:102B20000840002803D02046FFF7BDFF05E02046FF
:102B300000F078F8204600F076F800202075206834
:102B4000006908210840C00800281CD02068C0681F
:102B50000840C008002816D0C84321680861042036
:102B600020752068C0698007800F002803D02046A8
:102B7000FFF799FF05E0204600F054F8204600F0EA
:102B800052F80020207520680069102108400009D3
:102B900000281DD02068C06808400009002817D010
:102BA000C84321680861082020752068C069032196
:102BB00009020840002803D02046FFF774FF05E013
:102BC000204600F02FF8204600F02DF80020207558
:102BD00020680069C007C00F012148404840002814
:102BE0000CD02068C068084048404840002805D004
:102BF000C81E21680861204600F016F820680069A8
:102C000040210840800900280BD02068C068084097
:102C10008009002805D0C84321680861204600F0DB
:102C200004F810BD70477047704770477047704791
:102C300010B50446002C01D1012010BDA069002868
:102C400000D000E000BF6920005D002802D12046CE
:102C500000F02AF802216920015520680068400828
:102C6000400021680860204605F0FEFD606A0028EB
:102C700002D0204605F00CFD206840680921C902F9
:102C8000884321684860206880682A218843216839
:102C90008860206800680121084321680860204698
:102CA00005F06EFDC9E7000010B586B0044619486E
:102CB000C06A022108431749C8620846C06A022157
:102CC00008431449C8620846406B01218903084340
:102CD0001049486340200190022002900120039097
:102CE000022004900020059001A90B48FEF770FA1D
:102CF000802001900020059001A90748FEF768FA9E
:102D0000012200211B20FEF7B9FB1B20FEF7AAFBC6
:102D100006B010BD001002400004005030B504465B
:102D20000D46002300BF0BE0E05C0749886200BF4E
:102D30004021054800F00AF80028F9D0581C83B259
:102D4000AB42F1DB30BD0000003801400246D069E3
:102D50000840884201D1012070470020FCE70000B4
:102D600010B500F0E5F90020024908700120024981
:102D7000087010BD5E0000205D00002010B5054801
:102D80000078002805D001F00FFE03490868FEF71F
:102D9000D1F810BD5E000020AC0D0020FFB581B061
:102DA00005461746002D48D0002F46D0049800282D
:102DB00043D0642F3CDA0126AD07AD0F224C2AE048
:102DC00028463040002823D02078022808DA3046F0
:102DD0001E49097808401E49097808431C490870B3
:102DE000002020700498A080A7700298607002985C
:102DF000002803D1207804210843207006F010FF3A
:102E0000A0602078022108432070284670400546C3
:102E10007006060E0C34002DD2D120210D4800780A
:102E200007F027FA20210B48007807F081F908E025
:102E30000121284600F074F803E00021284600F044
:102E40006FF805B0F0BD0000680400205F000020AE
:102E5000600000200601002000B585B00F48C06A60
:102E6000012108430D49C8620846C06A042108438D
:102E70000A49C8620120009001900290022003904C
:102E8000694605200007FEF7A3F9012040030090E2
:102E900069460348FEF79CF905B000BD00100240EA
:102EA0000008005070B504460D46E007C00F00282A
:102EB0000ED0012D06D10122114605200007FEF794
:102EC0007DFA05E00022012105200007FEF776FAD1
:102ED0000220204000280DD0012D05D101225103F0
:102EE0000D48FEF76BFA05E00022012149030A486C
:102EF000FEF764FA002D05D0084800782043074902
:102F0000087007E02046FF2148400449097808403E
:102F10000249087070BD0000000800505F000020EA
:102F2000F8B505460E46330005F069FF0917160689
:102F3000360E3636361836007D23DB000522012199
:102F40002846FFF72BFF28E07D23DB0005223221F6
:102F50002846FFF723FF20E000BF00BF0127AD0791
:102F6000AD0F104C15E02846384000280ED0082E32
:102F700001D0267003E0207801214840207021789C
:102F80003846FFF78FFF2846784005467806070E3B
:102F90000C34002DE7D100E000BF00BF02480078EC
:102FA000F8BD0000680400205F000020FEB5002787
:102FB000012503200190484C2046007E00287DD149
:102FC0007BE001982840002874D020780221084036
:102FD00000286CD006F024FE0646A168B14259D8FC
:102FE0002078C007C00F002815D0A0786421081AE7
:102FF000C0B202902078400840002070002128468E
:10300000FFF750FF207804210840002819D160788C
:10301000401E607015E06078002809D120780421F6
:103020000840002804D1207802214840207008E0A0
:10303000A078029020780121084320702846FFF7ED
:1030400031FF20780221084000280CD0A188029A84
:10305000514308466421FDF74DF880B20090009876
:103060003018A0601AE0002000901C48007828402A
:10307000002801D0012000E0002001462846FFF78B
:103080004FFF2846FF21484014490978084013495A
:10309000087003E02089801B80B20090002F05D0CB
:1030A0000098002803D00098B84200DA009F0198E9
:1030B000684001906806050E0C3400E00BE00198B2
:1030C000002800D07DE7002F05D03A462021044893
:1030D000007807F0AFF8FEBD680400206000002013
:1030E0000601002000BFFEE710B504460248047048
:1030F000FEF778F910BD00000601002070B5054606
:103100000C4620202040002805D0FFF74FFF204626
:103110002021484070BD10202040002805D0FFF736
:103120002DFE204610214840F4E70020F2E7000081
:1031300000B585B00E48C06A012108430C49C86239
:103140000C480190012002900002009002200390A0
:10315000694605200007FEF73BF800220121072001
:10316000FEF78CF90720FEF77DF905B000BD0000E1
:10317000001002400000211010B5014683230022F8
:1031800004E00C78491C104658432218087800289F
:10319000F7D15000400810BD00B589B00848406A1A
:1031A0000090074807A14369026901A805F0FCFDEA
:1031B00001A8FFF7E1FF0649086009B000BD000063
:1031C0004000F81F25782C25782C25780000000079
:1031D0003801002010B50446104804701049114809
:1031E000FDF732F80E4800F015F900200E4908707E
:1031F000FFF7D2FF0D4B0E4A0E480168002000F089
:103200000DFA0120084908700B4908700B490C4859
:1032100005F09CF8012001F0A1F910BD3701002054
:10322000330100207D4E00082901002019010020F3
:10323000090100203801002030010020C15B000896
:10324000780E0020F8B50D460026FF270120C003A8
:10325000284000283BD02FE07278314608311D48C5
:10326000007800F0FDFF0746304606F072FE1A486F
:10327000008806F07BF9002F1ED0082006F052FED1
:103280000446002C17D008220021204606F040FEFC
:103290000420207003206070277202220E4920460D
:1032A000093006F027FE21460C48007806F0FEFEA5
:1032B000204606F04EFE00BF0948007806F0B2FE38
:1032C0000600C9D128460121C9034840F8BD0020A5
:1032D000FCE700003201002040010020E400002053
:1032E00037010020F8B507460C462079012802D0A6
:1032F00002283FD100E000BF607A002839DD617A02
:1033000008460C3006F00EFE0546002D30D0607ADF
:1033100002460C320021284606F0FAFD02202870F1
:10332000607A6870E07AA17A00060014084340B21F
:10333000A870207B40B2E870601DFCF76DFF064668
:10334000627A31462846083006F0D4FD29460B48FB
:10335000007806F0ABFE284606F0FBFD227B51B25A
:10336000E27AA37A120612141A4350B206F07AF8DF
:1033700000BF00E000BF00BFF8BD0000E400002077
:10338000FFB581B007460E461C460B9D1E490A98A4
:1033900048718C712004000EC8712002000E087262
:1033A000200E48728D722804000EC8722802000E8A
:1033B0000873280E4873CE731448FDF7CAFB1348F0
:1033C0000399FDF7D7FB10220F491048FDF7DCFBEE
:1033D000F2B239460D48FDF7D7FB0C490C48FDF712
:1033E000D6FA0B48C07800060949897809040843D1
:1033F00007494978090208430549097808430C99A7
:10340000086005B0F0BD000048020020F81100205F
:10341000E410002010B504464D48046000204D49DA
:1034200008704D49487088700720C87001200871E5
:10343000491D0020FCF708FF0020474948724881D9
:103440000873002144484173817300204249C873C6
:103450000874087041490870012041490860002043
:1034600040490860404908704049086007204049C9
:10347000088001203F49087004203F4908703F49F7
:10348000087001203E49087000203E4908703E49FE
:10349000087001203D49088000213D4A11605160BB
:1034A0003C4A116051603C4908703C483C49086006
:1034B0003C483D4908603D4908603D483D49086039
:1034C0003D483E4908603E493E4804F03FFF3E49C2
:1034D0003C4805F009F83D493D4804F037FF3D49B7
:1034E0003D4804F033FF3D493D4804F02FFF3D497E
:1034F0003D4804F02BFF3D493D4804F027FF3D487F
:103500003D4908603D4888603D4808613D48486045
:103510003D48C8603D480168374888473C490969CB
:103520003B4A526951403A4A526A5140084606F0B5
:1035300075FF102037490870012037490870084688
:10354000007801F079F93149C86A804710BD000060
:10355000180200201C0200205010002060010020F2
:1035600064010020680100206E0100201402002088
:10357000F2010020F4010020F5010020F6010020F6
:10358000F7010020F8010020F9010020FA010020D5
:10359000000200200802002010020020C0C62D00FA
:1035A0003802002040420F002002002024020020A8
:1035B000404B4C0028020020808D5B002C02002034
:1035C000F94E00083C10002060AE0A00314E0008A1
:1035D00080100020555B0008941000203D5A000820
:1035E000A8100020A95A0008BC100020154E0008A1
:1035F000D010002059580008641000202D510008F8
:10360000D1570008015A00081558000880BD00086D
:103610004000F81F1102002061010020F8B50446A7
:103620000D4616461F4609480460094805601022E9
:103630003146084806F0C0F810223946064806F020
:10364000BBF8012005490870F8BD000054010020B6
:10365000580100208C0E00209C0E00206E010020DE
:10366000F8B504460D4616461F461048FDF771FA98
:1036700031460E48FDF77EFAEAB221460B48FDF7C7
:1036800083FA0A490A48FDF782F90948C07800061A
:10369000074989780904084305494978090208431C
:1036A0000349097808433860F8BD0000F81100208C
:1036B000E4100020FFB585B005460E461C460E9F5F
:1036C00007A80090F02200211C4806F081F81B4A50
:1036D0001021284605F064FD1022002101A806F003
:1036E00077F801216846017106223146401D06F037
:1036F00063F8022202A80330009906F05DF80F4A31
:10370000214601A805F01FFD1022002101A806F0A6
:103710005FF802216846017106223146401D06F01D
:103720004BF8022202A80330009906F045F8034A3C
:10373000394601A805F007FD09B0F0BD04110020CD
:10374000F8B507460C4615461E46F02200210748EC
:1037500006F03EF8E1B2054A284605F021FD034A8D
:103760003146384605F0EFFCF8BD0000041100209A
:1037700070B504460D460A48006800280DD0084878
:103780000068FCF749FD002807D005480068FCF7F1
:1037900043FD064629462046B0470020207070BDF4
:1037A00018020020FFB583B004460D460E9F0C9E04
:1037B0000D9802970096019029462046069B059A8F
:1037C00000F002F807B0F0BDFFB581B00D461E460F
:1037D000002701200090F0220021304805F0F8FF7A
:1037E0002E4A1021039805F0DBFC2D490A984871F8
:1037F0008E713004000EC8713002000E0872300E57
:1038000048720B9888720B980004000EC8720B98CF
:103810000002000E08730B98000E487320E0204948
:103820000098C8730098401C80B200901B4A1D4944
:103830001B4805F088FC00240AE039190198405C17
:103840001849095D48403A190C998854601C84B2A3
:10385000102CF2DB2846103885B238461030C7B23B
:10386000102DDCDA002D16DD0D490098C8730B4AC7
:103870000C490B4805F067FC00240AE0391901984F
:10388000405C0849095D48403A190C998854601C0D
:1038900084B2AC42F2DB05B0F0BD000004110020A0
:1038A00058020020F4100020FFB585B01C46119F7F
:1038B000002500200490ED490880ED49087010981B
:1038C000002800D10027079802782846691CCDB24D
:1038D000E8490A54079800784009002804D00228D3
:1038E0007DD0042876D176E0E34800687D21C900C8
:1038F000401AE2490860E24800687D21C900401A88
:10390000E0490860D9480580DA49024612888818DB
:103910000822DD49096805F04FFFD44800880830C7
:10392000D2490880D349D14A128888180822D74939
:10393000096805F041FFCD4800880830CB49088070
:10394000D34948698047D349088008460178C74869
:1039500002880088401CC54B1880C6488154CD4859
:103960000088001219460A880988491C1980C14933
:1039700088541846017804ABC7480268BD48FFF771
:103980006FFE0498C1B2B94802880088401CB74B4A
:103990001880B848815404980004010E1846028823
:1039A0000088401C1880B348815404980002010E1E
:1039B000184602880088401C1880AE48815404983C
:1039C000000E19460A880988491C1980A94988549B
:1039D00048E104E044E10120A549087000BFAF4878
:1039E0000078002802D1022009B0F0BDAC48006880
:1039F0007D21C900401AA1490860AA4800687D21BC
:103A0000C900401A9F4908600E98002803D1207809
:103A1000000900012070A4480078012807D1002087
:103A2000A149087020782021884320302070207818
:103A3000C009002830D09D480078002806D19C4954
:103A40000860207840218843207025E0984800686D
:103A5000402805D92078402188434030207003E079
:103A6000207840218843207091480068602813D94D
:103A700000208F4908608D4800214156002905DD4E
:103A80000078401E40B28949087005E089480088E6
:103A90000721084387490880874802782846691C1F
:103AA000CDB274490A54844800880004020E2846A6
:103AB000691CCDB26F490A547F4800680002020EAB
:103AC0002846691CCDB26B490A547B480068000E39
:103AD00029466A1CD5B2674A505422782846691C88
:103AE000CDB264490A54754802782846691CCDB2A3
:103AF00060490A54714800880004020E2846691C77
:103B0000CDB25C490A540E9800280FD0002608E078
:103B10000E98825D2846691CCDB256490A54701C25
:103B200086B220780007000FB042F1DC2078000751
:103B3000000F6349097840180F2825DC6148007898
:103B400001281CD120780009000121785C4A1278F4
:103B500089180907090F08432070207845494871E2
:103B6000002608E05848825D2846691CCDB24149CC
:103B70000A54701C86B2524800788642F2DB00205C
:103B8000504908704E490870E819802801DD03206B
:103B90002AE71098002829D036490F9848550F98E1
:103BA00000280ED149484549096800220092019138
:103BB00002904148464A394603681098FFF704FED0
:103BC0000DE042483D4909680022009201910290AF
:103BD0003948404A394603681098FFF7F5FD2549F2
:103BE0004919481C3A46394905F0E6FD681CC019D8
:103BF0001E49088004A831490968002200920191F9
:103C000002902D48324A0368184801881948FFF786
:103C1000B7FB16480088001D802801DD0320E3E67D
:103C20000498C1B2134A1148008811540498000442
:103C3000010E0E480088401C115404980002010E29
:103C40000A480088801C11540498000E074909880E
:103C5000C91C505405480088001D0449088001E033
:103C60000420C1E600BF0020BEE600006201002083
:103C700074010020AC0E0020280200203002002039
:103C80002C020020340200204801002044010020C2
:103C900080BD0008500100204C0100206E01002072
:103CA000200200202402002075010020F5010020E0
:103CB00070010020F2010020580100206401002062
:103CC00077010020760100202C1000202C0F00200E
:103CD0008C0E00209C0E0020F7B586B005460C46E1
:103CE000E7E12046611CCCB2285C801E030005F091
:103CF00086F8070519C4D6FEFDFCFB00F0480078E5
:103D0000402188434030EE4908702046611CCCB207
:103D1000285CEC49C8732046611CCCB2285CE94998
:103D20000874C5E1072700200590049003900290D5
:103D300001902046611CCCB2285C40B203900398ED
:103D40000007000F049003980006000F0390DE4860
:103D50000078002811D1DD480021415603988142A6
:103D600005D1DB48002141560498814205D000224C
:103D700011460320FDF718F99AE12046611CCCB2E8
:103D8000285C05902046611CCCB2285C0002059995
:103D9000084305902046611CCCB2285C0290029832
:103DA0004006400F019002980007000F0290029811
:103DB000002801D1012002900198002805D1059822
:103DC000002802D1FE20074027E0002623E00198CA
:103DD00006280ED106217143BE4A8818FCF71CFA4A
:103DE000002816D00120B0400599084380B2059004
:103DF0000FE00120B04005990840002809D00621B5
:103E00007143B44A8818FCF707FA002801D1FE2054
:103E10000740701CC6B2102ED9DB0398002802DBC5
:103E20000398072801DD012000E00020012801D1CE
:103E3000FD2007400498002804DB0498052801DCD5
:103E4000012000E00020002801D1FB200740780776
:103E5000400F07280BD19D49039808709C4904988E
:103E600008709D49059808809C49029808700022B6
:103E700039460320FDF798F81AE12046611CCCB2C0
:103E8000285C9749087008460178012088409549C8
:103E90000880002211460420FDF786F808E1072675
:103EA00000BF00BF00BF2046611CCCB22F5C3807AA
:103EB000000F05903806070F2046611CCCB2285C25
:103EC00004902046611CCCB2285C0002049908438F
:103ED00004902046611CCCB2285C0004049908437D
:103EE00004906421049803E0E0E0B0E03EE033E0B9
:103EF000484304907C48016A04988847002801D10F
:103F0000FE2006400598002802DB0598072801DD01
:103F1000012000E00020012801D1FD200640002FF3
:103F200001DB052F01DD012000E00020012801D187
:103F3000FB2006407007400F072807D16B49059802
:103F400008710498FCF780F969490F700022314626
:103F50000520FDF729F8ABE0FDF77CF80646594847
:103F6000027B31460620FDF71FF8A1E0032600BFC3
:103F70002046611CCCB2285C47B22046611CCCB202
:103F8000285C04902146621CD4B2695C0902049842
:103F9000084304902146621CD4B2695C0904049869
:103FA0000843049064210498484304902046611C0F
:103FB000CCB2285C40B269460875032F01DB102F94
:103FC00001DDFE200640484A0498116A884700280F
:103FD00001D1FE2006406846007D000701176846B3
:103FE000142282561011814220DC6846007D0007B1
:103FF0000017002807DB6846007D00070017072828
:1040000001DC012000E0002000280FD069461420C8
:1040100008560011002806DB142008560011072856
:1040200001DC012000E00020002801D1FD20064035
:10403000B007800F032804D1F8B2059A049900F064
:1040400093FA002231460720FCF7AEFF30E020460D
:10405000611CCCB2285C0607360F002E01D1701C03
:10406000C6B23046FCF7AEFA0022224B0391029012
:10407000FCF7B4F905910490FCF7E4FA1E490860D6
:1040800008460068FCF79EFA00221A4B0391029042
:10409000FCF7F2F805910490FCF7D4FA1749086090
:1040A000002211460820FCF77FFF01E009B0F0BDB7
:1040B00000BF0898844200DA13E600BFF6E700006C
:1040C0001C020020501000206F010020F50100208C
:1040D000F40100208B010020F2010020F7010020F4
:1040E000F9010020FA01002080BD0008EB0100204A
:1040F000F001002080842E412002002024020020B4
:10410000FFB58BB00C4615461E462A4948688047C5
:1041100000284DD12748C1680B988847072C24D127
:104120002549085DFCF74EFA0022244B07910690C2
:10413000FCF754F909910890FCF784FA0A900120E1
:104140000021069107910891029103910990049131
:10415000059005211A4801910090164800238769AF
:10416000184918460A9AB84715E001210022149808
:104170000692079203920492029605920891099082
:104180000820009201900C48025D0A48012329464C
:1041900087691846B8471498002805D10548416B2F
:1041A00009480068884703E00248416B00208847BF
:1041B0000FB0F0BD80BD0008DDBD000800408F409D
:1041C0008545010050C3000038020020F0B587B0DB
:1041D00004460D4616461F46002106916846007E9D
:1041E0000109090106916846007E10218843069066
:1041F0006846007E2021884306906846007E402164
:10420000884306906846007E8021884311490978DA
:10421000C901802211400843069000F0CDF9002822
:1042200015D10C986946E0C103900B48007806222E
:1042300050430A4A8118062204A8FBF7C2FF06ABC6
:1042400022460599049800F069F907B0F0BD0520F1
:10425000FBE700006F010020110200208B0100200D
:104260007CB504460D46164600210191684600794A
:10427000E0218843403001902B462246002101A8CE
:104280000096FFF7A3FF7CBDF3B599B00025012090
:104290008949087089488A494A57805C8649C870AC
:1042A000884A1998D168884785480078072830D10E
:1042B0008249834A5357C85CFCF784F906460022BA
:1042C000814BFCF78BF807910690FCF7BBF904468D
:1042D0007E48002105910691079108900120052252
:1042E000019100940292039104907948794A5356BF
:1042F000C15674480023784AC6691846B0477748C3
:1043000001787048426A002090470021744A03C235
:1043100050E06B480078062826D16C4800210591B2
:1043200006910791089001200822019002920391C2
:1043300004906248624900228A56805C009064487A
:10434000644A0023D356C1565E4801230022C46943
:104350001846A047614801785A48426A01209047B0
:1043600000215F4A03C225E05848002105910691CB
:104370000791089001200822019002920391049075
:104380004E484F4900228A56805C00905048514A5E
:104390000023D356C1564B4800231A46C469012056
:1043A000A0474E4801784748426A012090470021C3
:1043B0004B4A03C24B480078FF2802D106201BB0AD
:1043C000F0BD48480078002803D10021464A11601A
:1043D0005160464800680121084344490860444848
:1043E00004F09CF803F0D6FE06460F4618A9497A59
:1043F000132251433F4A891808460B30FBF716FF3A
:10440000394B0CCB101A8B410AD218A9497A1322C6
:104410005143384A891808460B30FBF707FF01E083
:10442000314903C9301A8F4124D218A9497A13227D
:104430005143304A891808460B30FBF7F7FE2A4BE8
:104440000CCB101A8B410AD218A9497A1322514376
:10445000284A891808460B30FBF7E8FE01E022499C
:1044600003C904462146244804F03EF8224804F0DB
:1044700055F81FE02148C079000220498979401889
:1044800085B21F480580402109A8FBF7B3FE2A46E4
:104490001CA109A804F088FC09A8FBF7B6FE044695
:1044A000214609A8FEF73AFC0C4801780548826AC3
:1044B00012489047002082E750100020DDBD000820
:1044C000F501002080BD000800408F40C0C62D00CF
:1044D000E5BD0008F4010020A86100006201002091
:1044E00040020020F90100200802002014020020F0
:1044F0003C1000207801002094100020AC0E002019
:10450000400100200D0A203131316672616D655F16
:104510006E6F3A202564200D0A000000FFB585B0BB
:104520000EADE0CD002411980297019600950390FE
:1045300005A80FC8FFF7B8F90446002C02D02046A2
:1045400009B0F0BD002004498870487006990598AC
:10455000FFF79AFEF4E700005010002001490870B0
:10456000704700006F01002037B5044600206946FF
:104570004872062161430E4A8818062201A9FBF7FA
:1045800020FE0120A0400B49098808430949088002
:1045900006216143064A8818FBF73EFE002806D133
:1045A0000120A040034909888143024801803EBDA3
:1045B0008B010020F2010020F0B58BB00024002018
:1045C0000990924800780890002703F0E3FD0391DA
:1045D0000290002004900590069007908C4B029961
:1045E00003980CCB891A98418A4B0CCB511A834102
:1045F00003D20020874A106050600021C943009117
:10460000019100245CE084480078012849D11321FD
:104610006143824A891808460B30FBF707FE0546BE
:104620000E46132161437D4A8918C81CFBF7FEFD25
:10463000039B029A101A8B41281A9E4109D213201B
:1046400060437649401802460B3200200146FBF7D2
:1046500004FE13216143714A891808460B30FBF7A9
:10466000E5FD002358405940084327D013216143FA
:104670006A4A891808460B30FBF7D8FD019B009A5F
:10468000801A994108D213216143644A8918084667
:104690000B30FBF7CBFD01E00199009801910090F0
:1046A0000CE0002000900190132060435B4940180B
:1046B00002460B3200200146FBF7CFFD601CC4B25E
:1046C000012CA0DB002451E00120A04054490988BE
:1046D0000840002847D006216143524A8818FBF75A
:1046E0009BFD002800D13FE0062060434D49401863
:1046F0000079000700174C4900228A5690420DDCD1
:104700000620604347494018042141560811464994
:1047100000228A56904201DB012000E000200028A0
:1047200000D121E0062161433E4A891849791322CC
:1047300051433A4A891808460B30FBF777FD0023AE
:1047400058405940084300D00EE0324801684068A4
:10475000002359405840014300D005E03846791CF9
:10476000CFB204A90C5400BF601CC4B2102CABDB48
:10477000002F36DD0024791E002005F0BBFDC0B2FD
:1047800009902CE004A90998095C08913946099818
:10479000401CFBF7C5FCC8B209900622089951439A
:1047A000204A8818FBF738FD054620485922D24395
:1047B000294603690120984701280ED1134908981A
:1047C00008701B480068102188431949086019487F
:1047D00003F0E8FE00200BB0F0BD601CC4B2102C4A
:1047E000D0DB134800681021084000280CD1114884
:1047F000009903F079FE0F4803F090FE0C48006822
:10480000102108430A4908600120E4E71102002052
:104810000002002008020020100200207801002081
:10482000F20100208B010020F501002080BD00086E
:10483000140200208010002010B504460A480470BD
:104840000A4881680120884707480078012805D177
:1048500006483421026C3920904704E003481221B5
:10486000026C3920904710BD6101002080BD000816
:1048700070B506460C463546002D01D1FF2070BDAF
:10488000E007C00F002802D00C480068286008200C
:104890002040002805D01022094928461C3005F088
:1048A00029FB10202040002805D010220549284669
:1048B0002C3005F01FFB0020E1E70000380100204C
:1048C000090100201901002070B505460C462E464E
:1048D000002E01D1FF2070BDE007C00F002801D0DD
:1048E0000120F8E708202040002805D0102231469A
:1048F0001C310B4805F0FEFA10202040002805D09E
:10490000102231462C31074805F0F4FA054B044AD1
:10491000054801680020FEF781FE0020DBE700006B
:104920000901002019010020380100207047000013
:1049300010B5002819DA1A4A03071B0F083B9B0819
:104940009B00D2588307DC0EFF23A3409A438B07BA
:104950001B0E8407E40EA3401A43114B0407240FD7
:10496000083CA408A4001A5118E00E4A03231B02B5
:10497000D21883089B00D2588307DC0EFF23A34084
:104980009A438B071B0E8407E40EA3401A43054B82
:10499000032424021B198408A4001A5110BD00002E
:1049A0001CED00E000E100E070B500240CE0002503
:1049B00006E00020E900074A89180855681CC5B2BE
:1049C000802DF6DB601CC4B2082CF0DB00F004F98B
:1049D00070BD00008404002070B500240CE00025A8
:1049E00006E00020E900074A89180855681CC5B28E
:1049F000802DF6DB601CC4B2022CF0DB00F0ECF87A
:104A000070BD000084040020F7B500257F2801DC7C
:104A10003F2900DDFEBD0B46CE17760FF618F610C7
:104A20000727BE1BF2B2CE17760FF618F610F60067
:104A30008E1BF4B207231E1B0123B340DDB2029B81
:104A4000002B09D0C3000A4E9B199B5C2B43C60068
:104A5000074FF619B35408E0C300054E9B199B5C41
:104A6000AB43C600024FF619B35400BFD2E70000B3
:104A70008404002000B585B05548C06A0121084370
:104A80005349C8620846C06A022108435049C862B7
:104A90000120C0030090012001900290039069461C
:104AA00005200007FCF794FB0122D1030520000735
:104AB000FCF784FC0F200003009069464548FCF792
:104AC00087FB01220F2109034248FCF777FC0122F2
:104AD000D10305200007FCF771FC012291033D483A
:104AE000FCF76CFC0022012109033A48FCF766FC44
:104AF0006420FCF74DFB012211033648FCF75EFCF5
:104B00000021AE2000F03CF90021D52000F038F95A
:104B10000021502000F034F90021A82000F030F9E5
:104B200000213F2000F02CF90021D32000F028F9CB
:104B30000021084600F024F90021402000F020F96F
:104B400000218D2000F01CF90021142000F018F93C
:104B50000021202000F014F90021022000F010F9BB
:104B60000021A12000F00CF90021C02000F008F97C
:104B70000021DA2000F004F90021122000F000F9F1
:104B80000021812000F0FCF80021EF2000F0F8F86F
:104B90000021D92000F0F4F80021F12000F0F0F815
:104BA0000021DB2000F0ECF80021302000F0E8F8D4
:104BB0000021A42000F0E4F80021A62000F0E0F895
:104BC0000021AF2000F0DCF8FFF7EEFE05B000BDDD
:104BD000001002400004005070B500241CE0214683
:104BE000B031C8B2002100F0CBF80021084600F037
:104BF000C7F80021102000F0C3F8002508E0E90004
:104C0000074A8918085D012100F0BAF8681CC5B28E
:104C1000802DF4DB601CC4B2082CE0DB70BD00000A
:104C200084040020FFB585B00F4616461C46029747
:104C30002046E217520F1218D210E3175B0F1B1811
:104C4000DB10DB000094E31A01D0012300E0002315
:104C5000D2182146E30F5B185B105A43D2B201927F
:104C600030462038C6B200254EE00C2C06D10C2070
:104C7000704328494018405D049012E0102C05D183
:104C8000300125494018405D04900AE0182C06D1F7
:104C90002420704321494018405D049001E009B090
:104CA000F0BD0020039029E08021049808400028EE
:104CB00005D039460E9A0598FFF7A6FE0AE00E9831
:104CC000002801D1012000E0002002463946059865
:104CD000FFF79AFE04984006000E0490781CC7B2B5
:104CE0000298381AA04205D1029F0598401CC0B214
:104CF000059006E00398401CC0B203900398082872
:104D0000D2DB00BF681CC5B201988542ADDB00BF95
:104D1000C5E70000A8A500081CAA00080CB0000800
:104D2000F8B506460F4615461C4621E0E10F091965
:104D300049108022511AB14202DA00263819C7B24E
:104D40004020001BB84204DA002006460746FFF761
:104D50002BFE012000902A78234639463046FFF783
:104D600061FF2046E10F091849108919CEB26D1C68
:104D700028787E2802DC28782028D7DAF8BD0000C1
:104D800070B504460E46012E05D101228903204844
:104D9000FCF714FB05E00022012189031C48FCF705
:104DA0000DFB00220121C90305200007FCF706FBCB
:104DB00000251EE00022012149031548FCF7FEFAF8
:104DC00080202040002805D00122D1031048FCF7A4
:104DD000F5FA05E000220121C9030D48FCF7EEFABF
:104DE000012251030A48FCF7E9FA6006040E681C28
:104DF000C5B2082DDEDB0122D10305200007FCF738
:104E0000DDFA012291030248FCF7D8FA70BD0000D8
:104E1000000400500120044908700448006804217F
:104E200088430249086070473E02002014020020B7
:104E30001CB50F480068102188430D490860FFF732
:104E4000BBFB002813D10A480078C007C00F002818
:104E50000DD00848007806225043074A81180622E0
:104E60006846FBF7AEF901990098FFF70DFA1CBDF3
:104E700014020020110200208B01002070B50446AE
:104E80000E462078C009002802D00120164908707B
:104E90002078C007C00F00280FD0022005F042F88C
:104EA0000546002D08D00120287000206870294692
:104EB0000E48007805F0FAF800BF20788007C00F90
:104EC00000280DD020784007C00F002808D00848DF
:104ED0000068401C0649086031462046FEF702FA89
:104EE00001200449087070BD29010020E400002061
:104EF0002C010020310100201CB57B480078C00740
:104F0000C00F00287ED079480078002843D1764829
:104F10000078C009002806D07548007875490870E7
:104F20000020754908607348007871490978884203
:104F300019DB00206F4908707049087070480068DC
:104F4000401C6F4908606F480078002804D16A4807
:104F50000068401C684908606B48006840084000D1
:104F60006949086017E060480078400840005E49E1
:104F70000870FFF721FB00280DD164480078062255
:104F80005043634A811806226846FBF71AF90199D3
:104F90000098FFF779F9544800788007C00F00287F
:104FA0001FD056484078012805D05A4800785A4901
:104FB0000978884215DD002058490870514800786A
:104FC000002804D14C480068401C4B4908605148F7
:104FD00000784A4988704C480068400840004A49B7
:104FE00008604E480078012865D1474800681021C4
:104FF000084000285FD14949087046480078464972
:10500000097800E038E0884237DA4248007808281A
:1050100033DC40480078401C3E4908700878C10FD6
:10502000091849104900411A01290DD13C490020B5
:105030000856401E002803DD00200856401E00E0F0
:10504000002040B2364908702748007840084000E8
:1050500025490870FFF7B0FA00282CD12B480078BA
:10506000062250432A4A811806226846FBF7A9F80F
:1050700001990098FFF708F91DE02A4800880721E8
:1050800008432849088020480068400840001E491D
:1050900008600020194948701E4800788870194837
:1050A0000078002804D114480068401C12490860A8
:1050B00000201249087014480068022108400228A4
:1050C00004D11148006888430F4908600E48006801
:1050D000002804D109490448FEF74AFB02E01248BF
:1050E00003F01CFA1CBD00001C020020740100200B
:1050F000F7010020F801002064010020501000207A
:10510000700100206C010020140200201102002018
:105110008B0100203D0200203C0200203E020020C6
:10512000F5010020F20100203C100020FFB593B0F3
:1051300004460D4600200F900E900D900C900B90A1
:10514000FF200A9000200990089000260790FE4852
:105150000690FE480590002700200490FC48007847
:10516000022803D0FB49C86A804707E0FA48007864
:105170008006800F002801D100F096FCF74803F06C
:1051800011FA0F98411CC9B20F91215C119110A81E
:1051900000794009012806D003287DD005287CD05D
:1051A00007287BD1EBE2EE480078012800D1F7E236
:1051B000681E81B2EB4BEC480268601CFEF7C0FA37
:1051C00010A80079E749491E0870281F81B208AB72
:1051D000E5480268E348401EFEF742FA281FE1490D
:1051E000491E085C0643E81E085C00020643A81E30
:1051F000085C00040643681E085C00060643089825
:1052000086427DD1D448007802218843801CD2494F
:105210000870D6491698087315984881CB48CA4B30
:105220000090D3480288CF49CF480068FEF742FA81
:10523000CC48401E0079CF490860CA48401E4079DA
:10524000000209680843CB490860C648401E8079BF
:10525000000409680843C7490860C248401EC07975
:10526000C5490860BF48401E007A0002096808432B
:10527000C1490860BB48401E407A000409680843E1
:10528000BD490860B748401E807A00060968084397
:10529000B9490860B34802E08BE089E06EE2401E45
:1052A000C07A4006400FB5490870AE48401EC07A2B
:1052B0000007000FB2490871AA48401E007B000792
:1052C000000FB049086008460068002801D101209D
:1052D0000860AC480068FBF775F90022AA4B019101
:1052E0000090FBF77BF803910290FBF7ABF9A5491F
:1052F000086008460068FBF765F90022A24B00E051
:105300004BE001910090FAF7B7FF03910290FBF791
:1053100099F99E490860681E10282BDD50206946C7
:10532000087303200190002000901FE000980D30CA
:105330008C49491E095C00980E308A4A521E105C46
:105340000002084300990F31515C090408436421AD
:105350004843029001A807C8FFF706F90198401CCE
:10536000C0B201900098C01CC0B2009001980828FB
:10537000DCDB00BF784800788021884380307649A4
:10538000087001207649087081490020085681493B
:10539000087000207549087002E005207349087004
:1053A0006D48007840084000401C6B490870F7E1E8
:1053B00000BF0F98411CC9B20F91205C0E900F984E
:1053C000411CC9B20F91205C00020E9908430E9057
:1053D0000F98411CC9B20F91205C00040E9908433C
:1053E0000E900F98411CC9B20F91205C00060E99D7
:1053F00008430E9060490E98096888423DD066487F
:10540000006807901DE00798FAF706FF0E9988429A
:1054100012D1514800780821884308304E4908705D
:105420000798001D069007981430059007982430BF
:10543000FAF7F2FE074607E007982830FAF7ECFE85
:10544000079007980028DED100BF43480078000786
:10545000C00F00281DD14048007840084000401C83
:105460003D4908700720414908704C4800684008D1
:1054700040004A49086017B0F0BD3748007808215D
:1054800088433549087030480690304805904448B4
:1054900007682F480078002808D04048006802219B
:1054A00008433E4908603F4803F038F80F98411C14
:1054B000C9B20F91215C10910F98411CC9B20F9194
:1054C000205C0D9908430D900F98411CC9B20F91B3
:1054D000205C00020D9908430D9010A80078000789
:1054E000000F08300B90281F205C0643E81E205C4C
:1054F00000020643A81E205C00040643681E205CD0
:1055000000060643B9B20D98401A0C900C9800287A
:105510006BDA380C0004012212040D998918084333
:10552000074608A80121019700910290281F81B227
:1055300020460E9B069AFDF723FF0898864233D13A
:105540000120049062E000008C0E00209C0E0020E0
:105550006001002080BD00081C020020BC1000205B
:105560006E010020AD0F00204C01002050100020E3
:10557000500100205401002058010020F0010020BB
:10558000EB0100202002002080842E412402002014
:10559000F6010020F50100205C010020140200202B
:1055A000680100203C100020002004907E48007814
:1055B0000007C00F002807D00D990F46084607992D
:1055C0002431FAF741FE03E00D9807467749086059
:1055D00008A80121019700910290281F81B220465E
:1055E0000E9B069AFDF7CCFE10E0380C00040D99D6
:1055F0000843074608A80121019700910290281F3F
:1056000081B220460E9B069AFDF7BAFE0498012847
:1056100002D00898864273D16348007802218843FB
:10562000801C614908706249169808731598488172
:10563000002048725F4908605B4800780007C00F8F
:10564000002805D0079924313846FAF7FDFD01E01E
:105650005648076010A800794009052803D10120A9
:105660005549087002E000205349087010A80078DE
:105670008006C00F002806D001204D4948704F48D1
:1056800002F090FF0BE00020494948704C48007838
:105690004C490978884202DD484802F083FF10A88F
:1056A00000780007000F002804DD082120460B9A2F
:1056B000FEF712FB281F0B99401A00283FDD0B98BC
:1056C000411CC9B20B91205C0A90281F0B99401A0B
:1056D000C0B209900A98002813D13B4801210197D4
:1056E000009102900B98201803900E9B069A09993E
:1056F000FEF758F800213448099AFEF7EDFA1EE04B
:1057000028E0314801210197009102900B98201860
:1057100003900E9B059A0999FEF744F822480078F9
:1057200004218843001D2049087021490A98087106
:10573000491D2548FAF788FD1D49099848721A48FD
:10574000007840084000401C1749087000201849A4
:10575000087012E00020164948701348007840088D
:105760004000401C10490870082011490870174873
:105770000068400840001549086011E000BF0A4871
:10578000007840084000401C074908700120084983
:1057900008700E480068400840000C49086000BFCF
:1057A00000BF00BF67E600001C0200206801002067
:1057B000501000207001002075010020D010002042
:1057C0003D0200203C020020AC0F0020140200200B
:1057D00010B50C480078022802D00B49C86A8047EF
:1057E0000A4800788006800F012809D10748007810
:1057F00040084000401C0549087004200449087016
:1058000010BD00006001002080BD00081C020020C7
:105810005010002010B50C480078022802D00B4927
:10582000C86A80470A4800788006800F012809D19D
:105830000748007840084000401C054908700320D4
:105840000449087010BD00006001002080BD000800
:105850001C02002050100020F0B589B002F09AFC24
:1058600005460E4653480078022803D05249C86ABC
:10587000804701E000F018F95048007806214843BD
:105880004F4940184079132148434E494018C21CE3
:1058900028463146FAF7E1FC4B480078012831D11F
:1058A000464800780621484345494018407913216D
:1058B0004843444940180B30029040480078062184
:1058C00048433F4940184079132148433D49411816
:1058D0004878097804020C4300203C4A06CA039227
:1058E000049105902046039B049A0599FAF72CFC35
:1058F000364B0CCB801A994101910090029AFAF72D
:10590000ACFC10E02D480078062148432C49401893
:105910004079132148432B49401802460B3200209E
:105920000146FAF79AFC2A4860C0284903C9294A67
:10593000178800220692079108903A46069BFAF7CC
:1059400003FC224B0CCB801A9941234B0CCB8018C3
:105950005941214A03C221480078012814D1204826
:105960000168204802F0C0FD1E4802F0D7FD114832
:105970000078022812D01C4801681C4802F0B4FDCF
:105980001A4802F0CBFD09E01948007840084000B1
:10599000401C174908700020164908701648007806
:1059A000002804D115480078401C1449087009B03B
:1059B000F0BD00006001002080BD00081102002041
:1059C0008B010020780100201002002040020020FE
:1059D00000020020FA010020080200206D010020D2
:1059E00030020020A810002034020020BC1000204B
:1059F0001C0200205010002074010020F80100203B
:105A000010B50A480078022803D00949C86A8047BF
:105A100001E000F049F80748007840084000401CC9
:105A20000449087002200449087010BD600100207C
:105A300080BD00081C02002050100020F8B505258C
:105A4000002400261348007813490978401A44B20C
:105A5000002C00DA0024032C00DB0825062C00D1E2
:105A600001260E480078302188430C4908700C4903
:105A70000978062251430B4A8818FAF7CDFB0746EE
:105A800000202B463246214600903846FEF738FB70
:105A9000F8BD0000F5010020F00100201C020020EC
:105AA000110200208B010020F8B52348007801285E
:105AB0000CD12249484204F01DFC214946183146C8
:105AC000204802F011FD1F4802F028FD05240025A2
:105AD0001D480079032800DB08241B4800790628AC
